{"abi":[{"type":"function","name":"AFGHANISTAN","inputs":[],"outputs":[{"name":"","type":"string","internalType":"string"}],"stateMutability":"view"},{"type":"function","name":"ALBANIA","inputs":[],"outputs":[{"name":"","type":"string","internalType":"string"}],"stateMutability":"view"},{"type":"function","name":"ALGERIA","inputs":[],"outputs":[{"name":"","type":"string","internalType":"string"}],"stateMutability":"view"},{"type":"function","name":"ANDORRA","inputs":[],"outputs":[{"name":"","type":"string","internalType":"string"}],"stateMutability":"view"},{"type":"function","name":"ANGOLA","inputs":[],"outputs":[{"name":"","type":"string","internalType":"string"}],"stateMutability":"view"},{"type":"function","name":"ANTIGUA_AND_BARBUDA","inputs":[],"outputs":[{"name":"","type":"string","internalType":"string"}],"stateMutability":"view"},{"type":"function","name":"ARGENTINA","inputs":[],"outputs":[{"name":"","type":"string","internalType":"string"}],"stateMutability":"view"},{"type":"function","name":"ARMENIA","inputs":[],"outputs":[{"name":"","type":"string","internalType":"string"}],"stateMutability":"view"},{"type":"function","name":"AUSTRALIA","inputs":[],"outputs":[{"name":"","type":"string","internalType":"string"}],"stateMutability":"view"},{"type":"function","name":"AUSTRIA","inputs":[],"outputs":[{"name":"","type":"string","internalType":"string"}],"stateMutability":"view"},{"type":"function","name":"AZERBAIJAN","inputs":[],"outputs":[{"name":"","type":"string","internalType":"string"}],"stateMutability":"view"},{"type":"function","name":"BAHAMAS","inputs":[],"outputs":[{"name":"","type":"string","internalType":"string"}],"stateMutability":"view"},{"type":"function","name":"BAHRAIN","inputs":[],"outputs":[{"name":"","type":"string","internalType":"string"}],"stateMutability":"view"},{"type":"function","name":"BANGLADESH","inputs":[],"outputs":[{"name":"","type":"string","internalType":"string"}],"stateMutability":"view"},{"type":"function","name":"BARBADOS","inputs":[],"outputs":[{"name":"","type":"string","internalType":"string"}],"stateMutability":"view"},{"type":"function","name":"BELARUS","inputs":[],"outputs":[{"name":"","type":"string","internalType":"string"}],"stateMutability":"view"},{"type":"function","name":"BELGIUM","inputs":[],"outputs":[{"name":"","type":"string","internalType":"string"}],"stateMutability":"view"},{"type":"function","name":"BELIZE","inputs":[],"outputs":[{"name":"","type":"string","internalType":"string"}],"stateMutability":"view"},{"type":"function","name":"BENIN","inputs":[],"outputs":[{"name":"","type":"string","internalType":"string"}],"stateMutability":"view"},{"type":"function","name":"BHUTAN","inputs":[],"outputs":[{"name":"","type":"string","internalType":"string"}],"stateMutability":"view"},{"type":"function","name":"BOLIVIA","inputs":[],"outputs":[{"name":"","type":"string","internalType":"string"}],"stateMutability":"view"},{"type":"function","name":"BOSNIA_AND_HERZEGOVINA","inputs":[],"outputs":[{"name":"","type":"string","internalType":"string"}],"stateMutability":"view"},{"type":"function","name":"BOTSWANA","inputs":[],"outputs":[{"name":"","type":"string","internalType":"string"}],"stateMutability":"view"},{"type":"function","name":"BRAZIL","inputs":[],"outputs":[{"name":"","type":"string","internalType":"string"}],"stateMutability":"view"},{"type":"function","name":"BRUNEI","inputs":[],"outputs":[{"name":"","type":"string","internalType":"string"}],"stateMutability":"view"},{"type":"function","name":"BULGARIA","inputs":[],"outputs":[{"name":"","type":"string","internalType":"string"}],"stateMutability":"view"},{"type":"function","name":"BURKINA_FASO","inputs":[],"outputs":[{"name":"","type":"string","internalType":"string"}],"stateMutability":"view"},{"type":"function","name":"BURUNDI","inputs":[],"outputs":[{"name":"","type":"string","internalType":"string"}],"stateMutability":"view"},{"type":"function","name":"CAMBODIA","inputs":[],"outputs":[{"name":"","type":"string","internalType":"string"}],"stateMutability":"view"},{"type":"function","name":"CAMEROON","inputs":[],"outputs":[{"name":"","type":"string","internalType":"string"}],"stateMutability":"view"},{"type":"function","name":"CANADA","inputs":[],"outputs":[{"name":"","type":"string","internalType":"string"}],"stateMutability":"view"},{"type":"function","name":"CAPE_VERDE","inputs":[],"outputs":[{"name":"","type":"string","internalType":"string"}],"stateMutability":"view"},{"type":"function","name":"CENTRAL_AFRICAN_REPUBLIC","inputs":[],"outputs":[{"name":"","type":"string","internalType":"string"}],"stateMutability":"view"},{"type":"function","name":"CHAD","inputs":[],"outputs":[{"name":"","type":"string","internalType":"string"}],"stateMutability":"view"},{"type":"function","name":"CHILE","inputs":[],"outputs":[{"name":"","type":"string","internalType":"string"}],"stateMutability":"view"},{"type":"function","name":"CHINA","inputs":[],"outputs":[{"name":"","type":"string","internalType":"string"}],"stateMutability":"view"},{"type":"function","name":"COLOMBIA","inputs":[],"outputs":[{"name":"","type":"string","internalType":"string"}],"stateMutability":"view"},{"type":"function","name":"COMOROS","inputs":[],"outputs":[{"name":"","type":"string","internalType":"string"}],"stateMutability":"view"},{"type":"function","name":"CONGO","inputs":[],"outputs":[{"name":"","type":"string","internalType":"string"}],"stateMutability":"view"},{"type":"function","name":"CONGO_DR","inputs":[],"outputs":[{"name":"","type":"string","internalType":"string"}],"stateMutability":"view"},{"type":"function","name":"COSTA_RICA","inputs":[],"outputs":[{"name":"","type":"string","internalType":"string"}],"stateMutability":"view"},{"type":"function","name":"CROATIA","inputs":[],"outputs":[{"name":"","type":"string","internalType":"string"}],"stateMutability":"view"},{"type":"function","name":"CUBA","inputs":[],"outputs":[{"name":"","type":"string","internalType":"string"}],"stateMutability":"view"},{"type":"function","name":"CYPRUS","inputs":[],"outputs":[{"name":"","type":"string","internalType":"string"}],"stateMutability":"view"},{"type":"function","name":"CZECH_REPUBLIC","inputs":[],"outputs":[{"name":"","type":"string","internalType":"string"}],"stateMutability":"view"},{"type":"function","name":"DENMARK","inputs":[],"outputs":[{"name":"","type":"string","internalType":"string"}],"stateMutability":"view"},{"type":"function","name":"DJIBOUTI","inputs":[],"outputs":[{"name":"","type":"string","internalType":"string"}],"stateMutability":"view"},{"type":"function","name":"DOMINICA","inputs":[],"outputs":[{"name":"","type":"string","internalType":"string"}],"stateMutability":"view"},{"type":"function","name":"DOMINICAN_REPUBLIC","inputs":[],"outputs":[{"name":"","type":"string","internalType":"string"}],"stateMutability":"view"},{"type":"function","name":"ECUADOR","inputs":[],"outputs":[{"name":"","type":"string","internalType":"string"}],"stateMutability":"view"},{"type":"function","name":"EGYPT","inputs":[],"outputs":[{"name":"","type":"string","internalType":"string"}],"stateMutability":"view"},{"type":"function","name":"EL_SALVADOR","inputs":[],"outputs":[{"name":"","type":"string","internalType":"string"}],"stateMutability":"view"},{"type":"function","name":"EQUATORIAL_GUINEA","inputs":[],"outputs":[{"name":"","type":"string","internalType":"string"}],"stateMutability":"view"},{"type":"function","name":"ERITREA","inputs":[],"outputs":[{"name":"","type":"string","internalType":"string"}],"stateMutability":"view"},{"type":"function","name":"ESTONIA","inputs":[],"outputs":[{"name":"","type":"string","internalType":"string"}],"stateMutability":"view"},{"type":"function","name":"ESWATINI","inputs":[],"outputs":[{"name":"","type":"string","internalType":"string"}],"stateMutability":"view"},{"type":"function","name":"ETHIOPIA","inputs":[],"outputs":[{"name":"","type":"string","internalType":"string"}],"stateMutability":"view"},{"type":"function","name":"FIJI","inputs":[],"outputs":[{"name":"","type":"string","internalType":"string"}],"stateMutability":"view"},{"type":"function","name":"FINLAND","inputs":[],"outputs":[{"name":"","type":"string","internalType":"string"}],"stateMutability":"view"},{"type":"function","name":"FRANCE","inputs":[],"outputs":[{"name":"","type":"string","internalType":"string"}],"stateMutability":"view"},{"type":"function","name":"GABON","inputs":[],"outputs":[{"name":"","type":"string","internalType":"string"}],"stateMutability":"view"},{"type":"function","name":"GAMBIA","inputs":[],"outputs":[{"name":"","type":"string","internalType":"string"}],"stateMutability":"view"},{"type":"function","name":"GEORGIA","inputs":[],"outputs":[{"name":"","type":"string","internalType":"string"}],"stateMutability":"view"},{"type":"function","name":"GERMANY","inputs":[],"outputs":[{"name":"","type":"string","internalType":"string"}],"stateMutability":"view"},{"type":"function","name":"GHANA","inputs":[],"outputs":[{"name":"","type":"string","internalType":"string"}],"stateMutability":"view"},{"type":"function","name":"GREECE","inputs":[],"outputs":[{"name":"","type":"string","internalType":"string"}],"stateMutability":"view"},{"type":"function","name":"GRENADA","inputs":[],"outputs":[{"name":"","type":"string","internalType":"string"}],"stateMutability":"view"},{"type":"function","name":"GUATEMALA","inputs":[],"outputs":[{"name":"","type":"string","internalType":"string"}],"stateMutability":"view"},{"type":"function","name":"GUINEA","inputs":[],"outputs":[{"name":"","type":"string","internalType":"string"}],"stateMutability":"view"},{"type":"function","name":"GUINEA_BISSAU","inputs":[],"outputs":[{"name":"","type":"string","internalType":"string"}],"stateMutability":"view"},{"type":"function","name":"GUYANA","inputs":[],"outputs":[{"name":"","type":"string","internalType":"string"}],"stateMutability":"view"},{"type":"function","name":"HAITI","inputs":[],"outputs":[{"name":"","type":"string","internalType":"string"}],"stateMutability":"view"},{"type":"function","name":"HONDURAS","inputs":[],"outputs":[{"name":"","type":"string","internalType":"string"}],"stateMutability":"view"},{"type":"function","name":"HUNGARY","inputs":[],"outputs":[{"name":"","type":"string","internalType":"string"}],"stateMutability":"view"},{"type":"function","name":"ICELAND","inputs":[],"outputs":[{"name":"","type":"string","internalType":"string"}],"stateMutability":"view"},{"type":"function","name":"INDIA","inputs":[],"outputs":[{"name":"","type":"string","internalType":"string"}],"stateMutability":"view"},{"type":"function","name":"INDONESIA","inputs":[],"outputs":[{"name":"","type":"string","internalType":"string"}],"stateMutability":"view"},{"type":"function","name":"IRAN","inputs":[],"outputs":[{"name":"","type":"string","internalType":"string"}],"stateMutability":"view"},{"type":"function","name":"IRAQ","inputs":[],"outputs":[{"name":"","type":"string","internalType":"string"}],"stateMutability":"view"},{"type":"function","name":"IRELAND","inputs":[],"outputs":[{"name":"","type":"string","internalType":"string"}],"stateMutability":"view"},{"type":"function","name":"ISRAEL","inputs":[],"outputs":[{"name":"","type":"string","internalType":"string"}],"stateMutability":"view"},{"type":"function","name":"ITALY","inputs":[],"outputs":[{"name":"","type":"string","internalType":"string"}],"stateMutability":"view"},{"type":"function","name":"IVORY_COAST","inputs":[],"outputs":[{"name":"","type":"string","internalType":"string"}],"stateMutability":"view"},{"type":"function","name":"JAMAICA","inputs":[],"outputs":[{"name":"","type":"string","internalType":"string"}],"stateMutability":"view"},{"type":"function","name":"JAPAN","inputs":[],"outputs":[{"name":"","type":"string","internalType":"string"}],"stateMutability":"view"},{"type":"function","name":"JORDAN","inputs":[],"outputs":[{"name":"","type":"string","internalType":"string"}],"stateMutability":"view"},{"type":"function","name":"KAZAKHSTAN","inputs":[],"outputs":[{"name":"","type":"string","internalType":"string"}],"stateMutability":"view"},{"type":"function","name":"KENYA","inputs":[],"outputs":[{"name":"","type":"string","internalType":"string"}],"stateMutability":"view"},{"type":"function","name":"KIRIBATI","inputs":[],"outputs":[{"name":"","type":"string","internalType":"string"}],"stateMutability":"view"},{"type":"function","name":"KUWAIT","inputs":[],"outputs":[{"name":"","type":"string","internalType":"string"}],"stateMutability":"view"},{"type":"function","name":"KYRGYZSTAN","inputs":[],"outputs":[{"name":"","type":"string","internalType":"string"}],"stateMutability":"view"},{"type":"function","name":"LAOS","inputs":[],"outputs":[{"name":"","type":"string","internalType":"string"}],"stateMutability":"view"},{"type":"function","name":"LATVIA","inputs":[],"outputs":[{"name":"","type":"string","internalType":"string"}],"stateMutability":"view"},{"type":"function","name":"LEBANON","inputs":[],"outputs":[{"name":"","type":"string","internalType":"string"}],"stateMutability":"view"},{"type":"function","name":"LESOTHO","inputs":[],"outputs":[{"name":"","type":"string","internalType":"string"}],"stateMutability":"view"},{"type":"function","name":"LIBERIA","inputs":[],"outputs":[{"name":"","type":"string","internalType":"string"}],"stateMutability":"view"},{"type":"function","name":"LIBYA","inputs":[],"outputs":[{"name":"","type":"string","internalType":"string"}],"stateMutability":"view"},{"type":"function","name":"LIECHTENSTEIN","inputs":[],"outputs":[{"name":"","type":"string","internalType":"string"}],"stateMutability":"view"},{"type":"function","name":"LITHUANIA","inputs":[],"outputs":[{"name":"","type":"string","internalType":"string"}],"stateMutability":"view"},{"type":"function","name":"LUXEMBOURG","inputs":[],"outputs":[{"name":"","type":"string","internalType":"string"}],"stateMutability":"view"},{"type":"function","name":"MADAGASCAR","inputs":[],"outputs":[{"name":"","type":"string","internalType":"string"}],"stateMutability":"view"},{"type":"function","name":"MALAWI","inputs":[],"outputs":[{"name":"","type":"string","internalType":"string"}],"stateMutability":"view"},{"type":"function","name":"MALAYSIA","inputs":[],"outputs":[{"name":"","type":"string","internalType":"string"}],"stateMutability":"view"},{"type":"function","name":"MALDIVES","inputs":[],"outputs":[{"name":"","type":"string","internalType":"string"}],"stateMutability":"view"},{"type":"function","name":"MALI","inputs":[],"outputs":[{"name":"","type":"string","internalType":"string"}],"stateMutability":"view"},{"type":"function","name":"MALTA","inputs":[],"outputs":[{"name":"","type":"string","internalType":"string"}],"stateMutability":"view"},{"type":"function","name":"MARSHALL_ISLANDS","inputs":[],"outputs":[{"name":"","type":"string","internalType":"string"}],"stateMutability":"view"},{"type":"function","name":"MAURITANIA","inputs":[],"outputs":[{"name":"","type":"string","internalType":"string"}],"stateMutability":"view"},{"type":"function","name":"MAURITIUS","inputs":[],"outputs":[{"name":"","type":"string","internalType":"string"}],"stateMutability":"view"},{"type":"function","name":"MEXICO","inputs":[],"outputs":[{"name":"","type":"string","internalType":"string"}],"stateMutability":"view"},{"type":"function","name":"MICRONESIA","inputs":[],"outputs":[{"name":"","type":"string","internalType":"string"}],"stateMutability":"view"},{"type":"function","name":"MOLDOVA","inputs":[],"outputs":[{"name":"","type":"string","internalType":"string"}],"stateMutability":"view"},{"type":"function","name":"MONACO","inputs":[],"outputs":[{"name":"","type":"string","internalType":"string"}],"stateMutability":"view"},{"type":"function","name":"MONGOLIA","inputs":[],"outputs":[{"name":"","type":"string","internalType":"string"}],"stateMutability":"view"},{"type":"function","name":"MONTENEGRO","inputs":[],"outputs":[{"name":"","type":"string","internalType":"string"}],"stateMutability":"view"},{"type":"function","name":"MOROCCO","inputs":[],"outputs":[{"name":"","type":"string","internalType":"string"}],"stateMutability":"view"},{"type":"function","name":"MOZAMBIQUE","inputs":[],"outputs":[{"name":"","type":"string","internalType":"string"}],"stateMutability":"view"},{"type":"function","name":"MYANMAR","inputs":[],"outputs":[{"name":"","type":"string","internalType":"string"}],"stateMutability":"view"},{"type":"function","name":"NAMIBIA","inputs":[],"outputs":[{"name":"","type":"string","internalType":"string"}],"stateMutability":"view"},{"type":"function","name":"NAURU","inputs":[],"outputs":[{"name":"","type":"string","internalType":"string"}],"stateMutability":"view"},{"type":"function","name":"NEPAL","inputs":[],"outputs":[{"name":"","type":"string","internalType":"string"}],"stateMutability":"view"},{"type":"function","name":"NETHERLANDS","inputs":[],"outputs":[{"name":"","type":"string","internalType":"string"}],"stateMutability":"view"},{"type":"function","name":"NEW_ZEALAND","inputs":[],"outputs":[{"name":"","type":"string","internalType":"string"}],"stateMutability":"view"},{"type":"function","name":"NICARAGUA","inputs":[],"outputs":[{"name":"","type":"string","internalType":"string"}],"stateMutability":"view"},{"type":"function","name":"NIGER","inputs":[],"outputs":[{"name":"","type":"string","internalType":"string"}],"stateMutability":"view"},{"type":"function","name":"NIGERIA","inputs":[],"outputs":[{"name":"","type":"string","internalType":"string"}],"stateMutability":"view"},{"type":"function","name":"NORTH_KOREA","inputs":[],"outputs":[{"name":"","type":"string","internalType":"string"}],"stateMutability":"view"},{"type":"function","name":"NORTH_MACEDONIA","inputs":[],"outputs":[{"name":"","type":"string","internalType":"string"}],"stateMutability":"view"},{"type":"function","name":"NORWAY","inputs":[],"outputs":[{"name":"","type":"string","internalType":"string"}],"stateMutability":"view"},{"type":"function","name":"OMAN","inputs":[],"outputs":[{"name":"","type":"string","internalType":"string"}],"stateMutability":"view"},{"type":"function","name":"PAKISTAN","inputs":[],"outputs":[{"name":"","type":"string","internalType":"string"}],"stateMutability":"view"},{"type":"function","name":"PALAU","inputs":[],"outputs":[{"name":"","type":"string","internalType":"string"}],"stateMutability":"view"},{"type":"function","name":"PANAMA","inputs":[],"outputs":[{"name":"","type":"string","internalType":"string"}],"stateMutability":"view"},{"type":"function","name":"PAPUA_NEW_GUINEA","inputs":[],"outputs":[{"name":"","type":"string","internalType":"string"}],"stateMutability":"view"},{"type":"function","name":"PARAGUAY","inputs":[],"outputs":[{"name":"","type":"string","internalType":"string"}],"stateMutability":"view"},{"type":"function","name":"PERU","inputs":[],"outputs":[{"name":"","type":"string","internalType":"string"}],"stateMutability":"view"},{"type":"function","name":"PHILIPPINES","inputs":[],"outputs":[{"name":"","type":"string","internalType":"string"}],"stateMutability":"view"},{"type":"function","name":"POLAND","inputs":[],"outputs":[{"name":"","type":"string","internalType":"string"}],"stateMutability":"view"},{"type":"function","name":"PORTUGAL","inputs":[],"outputs":[{"name":"","type":"string","internalType":"string"}],"stateMutability":"view"},{"type":"function","name":"QATAR","inputs":[],"outputs":[{"name":"","type":"string","internalType":"string"}],"stateMutability":"view"},{"type":"function","name":"ROMANIA","inputs":[],"outputs":[{"name":"","type":"string","internalType":"string"}],"stateMutability":"view"},{"type":"function","name":"RUSSIA","inputs":[],"outputs":[{"name":"","type":"string","internalType":"string"}],"stateMutability":"view"},{"type":"function","name":"RWANDA","inputs":[],"outputs":[{"name":"","type":"string","internalType":"string"}],"stateMutability":"view"},{"type":"function","name":"SAINT_KITTS_AND_NEVIS","inputs":[],"outputs":[{"name":"","type":"string","internalType":"string"}],"stateMutability":"view"},{"type":"function","name":"SAINT_LUCIA","inputs":[],"outputs":[{"name":"","type":"string","internalType":"string"}],"stateMutability":"view"},{"type":"function","name":"SAINT_VINCENT_AND_THE_GRENADINES","inputs":[],"outputs":[{"name":"","type":"string","internalType":"string"}],"stateMutability":"view"},{"type":"function","name":"SAMOA","inputs":[],"outputs":[{"name":"","type":"string","internalType":"string"}],"stateMutability":"view"},{"type":"function","name":"SAN_MARINO","inputs":[],"outputs":[{"name":"","type":"string","internalType":"string"}],"stateMutability":"view"},{"type":"function","name":"SAO_TOME_AND_PRINCIPE","inputs":[],"outputs":[{"name":"","type":"string","internalType":"string"}],"stateMutability":"view"},{"type":"function","name":"SAUDI_ARABIA","inputs":[],"outputs":[{"name":"","type":"string","internalType":"string"}],"stateMutability":"view"},{"type":"function","name":"SENEGAL","inputs":[],"outputs":[{"name":"","type":"string","internalType":"string"}],"stateMutability":"view"},{"type":"function","name":"SERBIA","inputs":[],"outputs":[{"name":"","type":"string","internalType":"string"}],"stateMutability":"view"},{"type":"function","name":"SEYCHELLES","inputs":[],"outputs":[{"name":"","type":"string","internalType":"string"}],"stateMutability":"view"},{"type":"function","name":"SIERRA_LEONE","inputs":[],"outputs":[{"name":"","type":"string","internalType":"string"}],"stateMutability":"view"},{"type":"function","name":"SINGAPORE","inputs":[],"outputs":[{"name":"","type":"string","internalType":"string"}],"stateMutability":"view"},{"type":"function","name":"SLOVAKIA","inputs":[],"outputs":[{"name":"","type":"string","internalType":"string"}],"stateMutability":"view"},{"type":"function","name":"SLOVENIA","inputs":[],"outputs":[{"name":"","type":"string","internalType":"string"}],"stateMutability":"view"},{"type":"function","name":"SOLOMON_ISLANDS","inputs":[],"outputs":[{"name":"","type":"string","internalType":"string"}],"stateMutability":"view"},{"type":"function","name":"SOMALIA","inputs":[],"outputs":[{"name":"","type":"string","internalType":"string"}],"stateMutability":"view"},{"type":"function","name":"SOUTH_AFRICA","inputs":[],"outputs":[{"name":"","type":"string","internalType":"string"}],"stateMutability":"view"},{"type":"function","name":"SOUTH_KOREA","inputs":[],"outputs":[{"name":"","type":"string","internalType":"string"}],"stateMutability":"view"},{"type":"function","name":"SOUTH_SUDAN","inputs":[],"outputs":[{"name":"","type":"string","internalType":"string"}],"stateMutability":"view"},{"type":"function","name":"SPAIN","inputs":[],"outputs":[{"name":"","type":"string","internalType":"string"}],"stateMutability":"view"},{"type":"function","name":"SRI_LANKA","inputs":[],"outputs":[{"name":"","type":"string","internalType":"string"}],"stateMutability":"view"},{"type":"function","name":"SUDAN","inputs":[],"outputs":[{"name":"","type":"string","internalType":"string"}],"stateMutability":"view"},{"type":"function","name":"SURINAME","inputs":[],"outputs":[{"name":"","type":"string","internalType":"string"}],"stateMutability":"view"},{"type":"function","name":"SWEDEN","inputs":[],"outputs":[{"name":"","type":"string","internalType":"string"}],"stateMutability":"view"},{"type":"function","name":"SWITZERLAND","inputs":[],"outputs":[{"name":"","type":"string","internalType":"string"}],"stateMutability":"view"},{"type":"function","name":"SYRIA","inputs":[],"outputs":[{"name":"","type":"string","internalType":"string"}],"stateMutability":"view"},{"type":"function","name":"TAIWAN","inputs":[],"outputs":[{"name":"","type":"string","internalType":"string"}],"stateMutability":"view"},{"type":"function","name":"TAJIKISTAN","inputs":[],"outputs":[{"name":"","type":"string","internalType":"string"}],"stateMutability":"view"},{"type":"function","name":"TANZANIA","inputs":[],"outputs":[{"name":"","type":"string","internalType":"string"}],"stateMutability":"view"},{"type":"function","name":"THAILAND","inputs":[],"outputs":[{"name":"","type":"string","internalType":"string"}],"stateMutability":"view"},{"type":"function","name":"TIMOR_LESTE","inputs":[],"outputs":[{"name":"","type":"string","internalType":"string"}],"stateMutability":"view"},{"type":"function","name":"TOGO","inputs":[],"outputs":[{"name":"","type":"string","internalType":"string"}],"stateMutability":"view"},{"type":"function","name":"TONGA","inputs":[],"outputs":[{"name":"","type":"string","internalType":"string"}],"stateMutability":"view"},{"type":"function","name":"TRINIDAD_AND_TOBAGO","inputs":[],"outputs":[{"name":"","type":"string","internalType":"string"}],"stateMutability":"view"},{"type":"function","name":"TUNISIA","inputs":[],"outputs":[{"name":"","type":"string","internalType":"string"}],"stateMutability":"view"},{"type":"function","name":"TURKEY","inputs":[],"outputs":[{"name":"","type":"string","internalType":"string"}],"stateMutability":"view"},{"type":"function","name":"TURKMENISTAN","inputs":[],"outputs":[{"name":"","type":"string","internalType":"string"}],"stateMutability":"view"},{"type":"function","name":"TUVALU","inputs":[],"outputs":[{"name":"","type":"string","internalType":"string"}],"stateMutability":"view"},{"type":"function","name":"UGANDA","inputs":[],"outputs":[{"name":"","type":"string","internalType":"string"}],"stateMutability":"view"},{"type":"function","name":"UKRAINE","inputs":[],"outputs":[{"name":"","type":"string","internalType":"string"}],"stateMutability":"view"},{"type":"function","name":"UNITED_ARAB_EMIRATES","inputs":[],"outputs":[{"name":"","type":"string","internalType":"string"}],"stateMutability":"view"},{"type":"function","name":"UNITED_KINGDOM","inputs":[],"outputs":[{"name":"","type":"string","internalType":"string"}],"stateMutability":"view"},{"type":"function","name":"UNITED_STATES","inputs":[],"outputs":[{"name":"","type":"string","internalType":"string"}],"stateMutability":"view"},{"type":"function","name":"URUGUAY","inputs":[],"outputs":[{"name":"","type":"string","internalType":"string"}],"stateMutability":"view"},{"type":"function","name":"UZBEKISTAN","inputs":[],"outputs":[{"name":"","type":"string","internalType":"string"}],"stateMutability":"view"},{"type":"function","name":"VANUATU","inputs":[],"outputs":[{"name":"","type":"string","internalType":"string"}],"stateMutability":"view"},{"type":"function","name":"VATICAN","inputs":[],"outputs":[{"name":"","type":"string","internalType":"string"}],"stateMutability":"view"},{"type":"function","name":"VENEZUELA","inputs":[],"outputs":[{"name":"","type":"string","internalType":"string"}],"stateMutability":"view"},{"type":"function","name":"VIETNAM","inputs":[],"outputs":[{"name":"","type":"string","internalType":"string"}],"stateMutability":"view"},{"type":"function","name":"YEMEN","inputs":[],"outputs":[{"name":"","type":"string","internalType":"string"}],"stateMutability":"view"},{"type":"function","name":"ZAMBIA","inputs":[],"outputs":[{"name":"","type":"string","internalType":"string"}],"stateMutability":"view"},{"type":"function","name":"ZIMBABWE","inputs":[],"outputs":[{"name":"","type":"string","internalType":"string"}],"stateMutability":"view"}],"bytecode":{"object":"0x613ac2610039600b82828239805160001a607314602c57634e487b7160e01b600052600060045260246000fd5b30600052607381538281f3fe7300000000000000000000000000000000000000003014608060405260043610610c7a5760003560e01c80637a22ee9b1161065f578063c55ca2991161034f578063e6901916116101d2578063f1c5f04e11610119578063f8a110f6116100c2578063fb1319fc1161009c578063fb1319fc14613959578063fd342d5514613995578063fd6159d9146139d1578063ff25385614613a0d57600080fd5b8063f8a110f6146138a5578063fa77b37b146138e1578063fb09898c1461391d57600080fd5b8063f652eae0116100f3578063f652eae0146137f1578063f78a1b181461382d578063f85181381461386957600080fd5b8063f1c5f04e1461373d578063f1e739d514613779578063f2a9c5d2146137b557600080fd5b8063eaa98de81161017b578063efd5191c11610155578063efd5191c14613689578063f076b5b8146136c5578063f1afeeb31461370157600080fd5b8063eaa98de8146135d5578063eb24e50014613611578063ef9777611461364d57600080fd5b8063e8b90b07116101ac578063e8b90b0714613521578063e9368d8f1461355d578063e9ddb48a1461359957600080fd5b8063e69019161461346d578063e6f1b19f146134a9578063e8a13bb0146134e557600080fd5b8063d6e126d911610296578063dd82c4f11161023f578063df5dd7bf11610219578063df5dd7bf146133b9578063e2214b51146133f5578063e32d37c71461343157600080fd5b8063dd82c4f114613305578063ddd25a7c14613341578063df1ef3981461337d57600080fd5b8063d8fa426d11610270578063d8fa426d14613251578063d9ef5ac51461328d578063dab05d85146132c957600080fd5b8063d6e126d91461319d578063d81aaa62146131d9578063d879e9111461321557600080fd5b8063d32060a3116102f8578063d59bfd17116102d2578063d59bfd17146130e9578063d5a1f08014613125578063d63e1ae41461316157600080fd5b8063d32060a314613035578063d408cb8d14613071578063d4c13ec2146130ad57600080fd5b8063ce08cd9d11610329578063ce08cd9d14612f81578063cebf311014612fbd578063d14dfd4f14612ff957600080fd5b8063c55ca29914612ecd578063c81bb40914612f09578063ca89a9eb14612f4557600080fd5b8063a1255e05116104e2578063b451f30211610429578063bca57000116103d2578063bed9240f116103ac578063bed9240f14612ddd578063c1055a9714612e19578063c1a235a614612e55578063c2b3d1f014612e9157600080fd5b8063bca5700014612d29578063bdf3e10714612d65578063be6f044714612da157600080fd5b8063b8c2b52011610403578063b8c2b52014612c75578063ba2f247814612cb1578063bc27915414612ced57600080fd5b8063b451f30214612bc1578063b502f6d314612bfd578063b6e5fc4a14612c3957600080fd5b8063ac8c052c1161048b578063b399f11611610465578063b399f11614612b0d578063b39a7d7214612b49578063b3ad5bcb14612b8557600080fd5b8063ac8c052c14612a59578063af95e51f14612a95578063b33dc19314612ad157600080fd5b8063a906ada2116104bc578063a906ada2146129a5578063a9fcb49a146129e1578063abbfd5af14612a1d57600080fd5b8063a1255e05146128f1578063a1d633b81461292d578063a571f9931461296957600080fd5b8063892c3526116105a657806395d842541161054f5780639eef7f4e116105295780639eef7f4e1461283d578063a017ed9a14612879578063a0dc9f06146128b557600080fd5b806395d84254146127895780639b70eb6f146127c55780639d7c5a001461280157600080fd5b80638f84622c116105805780638f84622c146126d557806391f558a21461271157806395c958841461274d57600080fd5b8063892c3526146126215780638e1f06141461265d5780638f49d81f1461269957600080fd5b80637fa725f711610608578063843f010b116105e2578063843f010b1461256d57806385f7daa2146125a957806387064366146125e557600080fd5b80637fa725f7146124b95780638034ea16146124f55780638396f5291461253157600080fd5b80637c398709116106395780637c398709146124055780637cdf0026146124415780637f2d75ff1461247d57600080fd5b80637a22ee9b146123515780637a7573f61461238d5780637b528dbd146123c957600080fd5b8063431b0b221161097a5780635ff65155116107fd578063679fb578116107445780636dc18816116106ed57806373b9bdc6116106c757806373b9bdc614612261578063745531f71461229d57806377171df3146122d957806378d84f491461231557600080fd5b80636dc18816146121ad5780636f25a323146121e957806371b32a131461222557600080fd5b80636a0c92751161071e5780636a0c9275146120f95780636db09917146121355780636dbb55721461217157600080fd5b8063679fb5781461204557806367e965e8146120815780636883e157146120bd57600080fd5b806362c515d5116107a657806365d82c921161078057806365d82c9214611f91578063660ee0d114611fcd57806366ebe7851461200957600080fd5b806362c515d514611edd57806363e1bb4714611f195780636459840814611f5557600080fd5b8063621e3fd9116107d7578063621e3fd914611e2957806362874fa514611e6557806362a77e9214611ea157600080fd5b80635ff6515514611d7557806360293dbc14611db157806361a05b9c14611ded57600080fd5b80635332bb54116108c15780635705c7561161086a5780635e63b955116108445780635e63b95514611cc15780635f8d854414611cfd5780635fa919ec14611d3957600080fd5b80635705c75614611c0d5780635bc170a414611c495780635c28c5b214611c8557600080fd5b806354c6dabf1161089b57806354c6dabf14611b5957806355f7710d14611b9557806356083f1614611bd157600080fd5b80635332bb5414611aa557806353873d5f14611ae157806354693bab14611b1d57600080fd5b80634afda197116109235780634ed9f3aa116108fd5780634ed9f3aa146119f157806351949b5714611a2d5780635249cf2a14611a6957600080fd5b80634afda1971461193d5780634cbc37ef146119795780634d66b729146119b557600080fd5b8063444d73a011610954578063444d73a014611889578063468f2739146118c55780634a106bb61461190157600080fd5b8063431b0b22146117d55780634334a8a5146118115780634447f5bb1461184d57600080fd5b80632050b72f11610b02578063314d63bc11610a49578063389f7f7b116109f25780633fe86aae116109cc5780633fe86aae14611721578063406ce5bc1461175d578063424f71711461179957600080fd5b8063389f7f7b1461166d5780633e8319d6146116a95780633fde8d17146116e557600080fd5b8063333781be11610a23578063333781be146115b9578063344796c0146115f557806336a749e01461163157600080fd5b8063314d63bc14611505578063322c32d21461154157806332804f591461157d57600080fd5b80632b96f43711610aab5780632fc789aa11610a855780632fc789aa146114515780633070e97b1461148d578063312dcc0f146114c957600080fd5b80632b96f4371461139d5780632c795b43146113d95780632e3ca6dd1461141557600080fd5b80632760382411610adc57806327603824146112e95780632a1d9848146113255780632a47695e1461136157600080fd5b80632050b72f1461123557806323bffa36146112715780632624ce25146112ad57600080fd5b80630ee6aec911610bc6578063174c571b11610b6f5780631cfd182811610b495780631cfd1828146111815780631d673fa1146111bd5780631e4beb9c146111f957600080fd5b8063174c571b146110cd5780631aceb859146111095780631bf8be851461114557600080fd5b8063131e110811610ba0578063131e1108146110195780631338e8a114611055578063154c610f1461109157600080fd5b80630ee6aec914610f655780630f053c3d14610fa157806312971ef514610fdd57600080fd5b806309084df611610c285780630a999bb311610c025780630a999bb314610eb15780630a9d3da714610eed5780630c03f87b14610f2957600080fd5b806309084df614610dfd57806309450df714610e395780630a08172d14610e7557600080fd5b806308a4d95011610c5957806308a4d95014610d4957806308c830fd14610d8557806308edfba014610dc157600080fd5b8062a6020314610c7f57806305c0d6b414610cd15780630652b18b14610d0d575b600080fd5b610cbb6040518060400160405280600381526020017f4a504e000000000000000000000000000000000000000000000000000000000081525081565b604051610cc89190613a49565b60405180910390f35b610cbb6040518060400160405280600381526020017f425241000000000000000000000000000000000000000000000000000000000081525081565b610cbb6040518060400160405280600381526020017f41524d000000000000000000000000000000000000000000000000000000000081525081565b610cbb6040518060400160405280600381526020017f505259000000000000000000000000000000000000000000000000000000000081525081565b610cbb6040518060400160405280600381526020017f4d4441000000000000000000000000000000000000000000000000000000000081525081565b610cbb6040518060400160405280600381526020017f4b4e41000000000000000000000000000000000000000000000000000000000081525081565b610cbb6040518060400160405280600381526020017f535242000000000000000000000000000000000000000000000000000000000081525081565b610cbb6040518060400160405280600381526020017f4e4741000000000000000000000000000000000000000000000000000000000081525081565b610cbb6040518060400160405280600381526020017f4d4c54000000000000000000000000000000000000000000000000000000000081525081565b610cbb6040518060400160405280600381526020017f424c5a000000000000000000000000000000000000000000000000000000000081525081565b610cbb6040518060400160405280600381526020017f434f4c000000000000000000000000000000000000000000000000000000000081525081565b610cbb6040518060400160405280600381526020017f49444e000000000000000000000000000000000000000000000000000000000081525081565b610cbb6040518060400160405280600381526020017f4d4c49000000000000000000000000000000000000000000000000000000000081525081565b610cbb6040518060400160405280600381526020017f545a41000000000000000000000000000000000000000000000000000000000081525081565b610cbb6040518060400160405280600381526020017f435249000000000000000000000000000000000000000000000000000000000081525081565b610cbb6040518060400160405280600381526020017f444e4b000000000000000000000000000000000000000000000000000000000081525081565b610cbb6040518060400160405280600381526020017f4d4f5a000000000000000000000000000000000000000000000000000000000081525081565b610cbb6040518060400160405280600381526020017f424852000000000000000000000000000000000000000000000000000000000081525081565b610cbb6040518060400160405280600381526020017f455350000000000000000000000000000000000000000000000000000000000081525081565b610cbb6040518060400160405280600381526020017f435950000000000000000000000000000000000000000000000000000000000081525081565b610cbb6040518060400160405280600381526020017f555341000000000000000000000000000000000000000000000000000000000081525081565b610cbb6040518060400160405280600381526020017f444d41000000000000000000000000000000000000000000000000000000000081525081565b610cbb6040518060400160405280600381526020017f524f55000000000000000000000000000000000000000000000000000000000081525081565b610cbb6040518060400160405280600381526020017f475559000000000000000000000000000000000000000000000000000000000081525081565b610cbb6040518060400160405280600381526020017f434956000000000000000000000000000000000000000000000000000000000081525081565b610cbb6040518060400160405280600381526020017f474841000000000000000000000000000000000000000000000000000000000081525081565b610cbb6040518060400160405280600381526020017f424641000000000000000000000000000000000000000000000000000000000081525081565b610cbb6040518060400160405280600381526020017f505254000000000000000000000000000000000000000000000000000000000081525081565b610cbb6040518060400160405280600381526020017f50414e000000000000000000000000000000000000000000000000000000000081525081565b610cbb6040518060400160405280600381526020017f54474f000000000000000000000000000000000000000000000000000000000081525081565b610cbb6040518060400160405280600381526020017f544c53000000000000000000000000000000000000000000000000000000000081525081565b610cbb6040518060400160405280600381526020017f465241000000000000000000000000000000000000000000000000000000000081525081565b610cbb6040518060400160405280600381526020017f534c42000000000000000000000000000000000000000000000000000000000081525081565b610cbb6040518060400160405280600381526020017f41474f000000000000000000000000000000000000000000000000000000000081525081565b610cbb6040518060400160405280600381526020017f535952000000000000000000000000000000000000000000000000000000000081525081565b610cbb6040518060400160405280600381526020017f535745000000000000000000000000000000000000000000000000000000000081525081565b610cbb6040518060400160405280600381526020017f504f4c000000000000000000000000000000000000000000000000000000000081525081565b610cbb6040518060400160405280600381526020017f485256000000000000000000000000000000000000000000000000000000000081525081565b610cbb6040518060400160405280600381526020017f4e4c44000000000000000000000000000000000000000000000000000000000081525081565b610cbb6040518060400160405280600381526020017f435542000000000000000000000000000000000000000000000000000000000081525081565b610cbb6040518060400160405280600381526020017f50524b000000000000000000000000000000000000000000000000000000000081525081565b610cbb6040518060400160405280600381526020017f4c534f000000000000000000000000000000000000000000000000000000000081525081565b610cbb6040518060400160405280600381526020017f434f47000000000000000000000000000000000000000000000000000000000081525081565b610cbb6040518060400160405280600381526020017f495441000000000000000000000000000000000000000000000000000000000081525081565b610cbb6040518060400160405280600381526020017f415447000000000000000000000000000000000000000000000000000000000081525081565b610cbb6040518060400160405280600381526020017f525741000000000000000000000000000000000000000000000000000000000081525081565b610cbb6040518060400160405280600381526020017f43414e000000000000000000000000000000000000000000000000000000000081525081565b610cbb6040518060400160405280600381526020017f54574e000000000000000000000000000000000000000000000000000000000081525081565b610cbb6040518060400160405280600381526020017f4c5641000000000000000000000000000000000000000000000000000000000081525081565b610cbb6040518060400160405280600381526020017f544344000000000000000000000000000000000000000000000000000000000081525081565b610cbb6040518060400160405280600381526020017f455249000000000000000000000000000000000000000000000000000000000081525081565b610cbb6040518060400160405280600381526020017f454355000000000000000000000000000000000000000000000000000000000081525081565b610cbb6040518060400160405280600381526020017f464a49000000000000000000000000000000000000000000000000000000000081525081565b610cbb6040518060400160405280600381526020017f535344000000000000000000000000000000000000000000000000000000000081525081565b610cbb6040518060400160405280600381526020017f4b415a000000000000000000000000000000000000000000000000000000000081525081565b610cbb6040518060400160405280600381526020017f4d5953000000000000000000000000000000000000000000000000000000000081525081565b610cbb6040518060400160405280600381526020017f48554e000000000000000000000000000000000000000000000000000000000081525081565b610cbb6040518060400160405280600381526020017f414e44000000000000000000000000000000000000000000000000000000000081525081565b610cbb6040518060400160405280600381526020017f414c42000000000000000000000000000000000000000000000000000000000081525081565b610cbb6040518060400160405280600381526020017f474e42000000000000000000000000000000000000000000000000000000000081525081565b610cbb6040518060400160405280600381526020017f43484c000000000000000000000000000000000000000000000000000000000081525081565b610cbb6040518060400160405280600381526020017f424948000000000000000000000000000000000000000000000000000000000081525081565b610cbb6040518060400160405280600381526020017f42544e000000000000000000000000000000000000000000000000000000000081525081565b610cbb6040518060400160405280600381526020017f4c424e000000000000000000000000000000000000000000000000000000000081525081565b610cbb6040518060400160405280600381526020017f434845000000000000000000000000000000000000000000000000000000000081525081565b610cbb6040518060400160405280600381526020017f4b475a000000000000000000000000000000000000000000000000000000000081525081565b610cbb6040518060400160405280600381526020017f49524e000000000000000000000000000000000000000000000000000000000081525081565b610cbb6040518060400160405280600381526020017f474252000000000000000000000000000000000000000000000000000000000081525081565b610cbb6040518060400160405280600381526020017f444f4d000000000000000000000000000000000000000000000000000000000081525081565b610cbb6040518060400160405280600381526020017f4d434f000000000000000000000000000000000000000000000000000000000081525081565b610cbb6040518060400160405280600381526020017f434f44000000000000000000000000000000000000000000000000000000000081525081565b610cbb6040518060400160405280600381526020017f46494e000000000000000000000000000000000000000000000000000000000081525081565b610cbb6040518060400160405280600381526020017f4c4945000000000000000000000000000000000000000000000000000000000081525081565b610cbb6040518060400160405280600381526020017f415554000000000000000000000000000000000000000000000000000000000081525081565b610cbb6040518060400160405280600381526020017f435056000000000000000000000000000000000000000000000000000000000081525081565b610cbb6040518060400160405280600381526020017f5a5745000000000000000000000000000000000000000000000000000000000081525081565b610cbb6040518060400160405280600381526020017f564e4d000000000000000000000000000000000000000000000000000000000081525081565b610cbb6040518060400160405280600381526020017f434f4d000000000000000000000000000000000000000000000000000000000081525081565b610cbb6040518060400160405280600381526020017f4d4152000000000000000000000000000000000000000000000000000000000081525081565b610cbb6040518060400160405280600381526020017f424752000000000000000000000000000000000000000000000000000000000081525081565b610cbb6040518060400160405280600381526020017f444a49000000000000000000000000000000000000000000000000000000000081525081565b610cbb6040518060400160405280600381526020017f424f4c000000000000000000000000000000000000000000000000000000000081525081565b610cbb6040518060400160405280600381526020017f4e504c000000000000000000000000000000000000000000000000000000000081525081565b610cbb6040518060400160405280600381526020017f444555000000000000000000000000000000000000000000000000000000000081525081565b610cbb6040518060400160405280600381526020017f555a42000000000000000000000000000000000000000000000000000000000081525081565b610cbb6040518060400160405280600381526020017f424c52000000000000000000000000000000000000000000000000000000000081525081565b610cbb6040518060400160405280600381526020017f49524c000000000000000000000000000000000000000000000000000000000081525081565b610cbb6040518060400160405280600381526020017f425242000000000000000000000000000000000000000000000000000000000081525081565b610cbb6040518060400160405280600381526020017f4d5553000000000000000000000000000000000000000000000000000000000081525081565b610cbb6040518060400160405280600381526020017f4a414d000000000000000000000000000000000000000000000000000000000081525081565b610cbb6040518060400160405280600381526020017f50484c000000000000000000000000000000000000000000000000000000000081525081565b610cbb6040518060400160405280600381526020017f50414b000000000000000000000000000000000000000000000000000000000081525081565b610cbb6040518060400160405280600381526020017f4c4341000000000000000000000000000000000000000000000000000000000081525081565b610cbb6040518060400160405280600381526020017f47544d000000000000000000000000000000000000000000000000000000000081525081565b610cbb6040518060400160405280600381526020017f534c45000000000000000000000000000000000000000000000000000000000081525081565b610cbb6040518060400160405280600381526020017f4d4e45000000000000000000000000000000000000000000000000000000000081525081565b610cbb6040518060400160405280600381526020017f4c5455000000000000000000000000000000000000000000000000000000000081525081565b610cbb6040518060400160405280600381526020017f494e44000000000000000000000000000000000000000000000000000000000081525081565b610cbb6040518060400160405280600381526020017f554741000000000000000000000000000000000000000000000000000000000081525081565b610cbb6040518060400160405280600381526020017f564154000000000000000000000000000000000000000000000000000000000081525081565b610cbb6040518060400160405280600381526020017f4e414d000000000000000000000000000000000000000000000000000000000081525081565b610cbb6040518060400160405280600381526020017f415a45000000000000000000000000000000000000000000000000000000000081525081565b610cbb6040518060400160405280600381526020017f434146000000000000000000000000000000000000000000000000000000000081525081565b610cbb6040518060400160405280600381526020017f4d4e47000000000000000000000000000000000000000000000000000000000081525081565b610cbb6040518060400160405280600381526020017f455448000000000000000000000000000000000000000000000000000000000081525081565b610cbb6040518060400160405280600381526020017f4d4d52000000000000000000000000000000000000000000000000000000000081525081565b610cbb6040518060400160405280600381526020017f4c5558000000000000000000000000000000000000000000000000000000000081525081565b610cbb6040518060400160405280600381526020017f495251000000000000000000000000000000000000000000000000000000000081525081565b610cbb6040518060400160405280600381526020017f4d5749000000000000000000000000000000000000000000000000000000000081525081565b610cbb6040518060400160405280600381526020017f4d4558000000000000000000000000000000000000000000000000000000000081525081565b610cbb6040518060400160405280600381526020017f454759000000000000000000000000000000000000000000000000000000000081525081565b610cbb6040518060400160405280600381526020017f504552000000000000000000000000000000000000000000000000000000000081525081565b610cbb6040518060400160405280600381526020017f54544f000000000000000000000000000000000000000000000000000000000081525081565b610cbb6040518060400160405280600381526020017f544f4e000000000000000000000000000000000000000000000000000000000081525081565b610cbb6040518060400160405280600381526020017f544841000000000000000000000000000000000000000000000000000000000081525081565b610cbb6040518060400160405280600381526020017f565554000000000000000000000000000000000000000000000000000000000081525081565b610cbb6040518060400160405280600381526020017f4d4456000000000000000000000000000000000000000000000000000000000081525081565b610cbb6040518060400160405280600381526020017f474e51000000000000000000000000000000000000000000000000000000000081525081565b610cbb6040518060400160405280600381526020017f424449000000000000000000000000000000000000000000000000000000000081525081565b610cbb6040518060400160405280600381526020017f534750000000000000000000000000000000000000000000000000000000000081525081565b610cbb6040518060400160405280600381526020017f4e5255000000000000000000000000000000000000000000000000000000000081525081565b610cbb6040518060400160405280600381526020017f53575a000000000000000000000000000000000000000000000000000000000081525081565b610cbb6040518060400160405280600381526020017f4b4952000000000000000000000000000000000000000000000000000000000081525081565b610cbb6040518060400160405280600381526020017f535943000000000000000000000000000000000000000000000000000000000081525081565b610cbb6040518060400160405280600381526020017f435a45000000000000000000000000000000000000000000000000000000000081525081565b610cbb6040518060400160405280600381526020017f4d5254000000000000000000000000000000000000000000000000000000000081525081565b610cbb6040518060400160405280600381526020017f485449000000000000000000000000000000000000000000000000000000000081525081565b610cbb6040518060400160405280600381526020017f42454c000000000000000000000000000000000000000000000000000000000081525081565b610cbb6040518060400160405280600381526020017f434d52000000000000000000000000000000000000000000000000000000000081525081565b610cbb6040518060400160405280600381526020017f4d4447000000000000000000000000000000000000000000000000000000000081525081565b610cbb6040518060400160405280600381526020017f544a4b000000000000000000000000000000000000000000000000000000000081525081565b610cbb6040518060400160405280600381526020017f415553000000000000000000000000000000000000000000000000000000000081525081565b610cbb6040518060400160405280600381526020017f53444e000000000000000000000000000000000000000000000000000000000081525081565b610cbb6040518060400160405280600381526020017f504c57000000000000000000000000000000000000000000000000000000000081525081565b610cbb6040518060400160405280600381526020017f4c4252000000000000000000000000000000000000000000000000000000000081525081565b610cbb6040518060400160405280600381526020017f53454e000000000000000000000000000000000000000000000000000000000081525081565b610cbb6040518060400160405280600381526020017f504e47000000000000000000000000000000000000000000000000000000000081525081565b610cbb6040518060400160405280600381526020017f474142000000000000000000000000000000000000000000000000000000000081525081565b610cbb6040518060400160405280600381526020017f564354000000000000000000000000000000000000000000000000000000000081525081565b610cbb6040518060400160405280600381526020017f42524e000000000000000000000000000000000000000000000000000000000081525081565b610cbb6040518060400160405280600381526020017f46534d000000000000000000000000000000000000000000000000000000000081525081565b610cbb6040518060400160405280600381526020017f525553000000000000000000000000000000000000000000000000000000000081525081565b610cbb6040518060400160405280600381526020017f475243000000000000000000000000000000000000000000000000000000000081525081565b610cbb6040518060400160405280600381526020017f4c414f000000000000000000000000000000000000000000000000000000000081525081565b610cbb6040518060400160405280600381526020017f4d484c000000000000000000000000000000000000000000000000000000000081525081565b610cbb6040518060400160405280600381526020017f4b454e000000000000000000000000000000000000000000000000000000000081525081565b610cbb6040518060400160405280600381526020017f49534c000000000000000000000000000000000000000000000000000000000081525081565b610cbb6040518060400160405280600381526020017f545552000000000000000000000000000000000000000000000000000000000081525081565b610cbb6040518060400160405280600381526020017f56454e000000000000000000000000000000000000000000000000000000000081525081565b610cbb6040518060400160405280600381526020017f424744000000000000000000000000000000000000000000000000000000000081525081565b610cbb6040518060400160405280600381526020017f5a4d42000000000000000000000000000000000000000000000000000000000081525081565b610cbb6040518060400160405280600381526020017f4b5754000000000000000000000000000000000000000000000000000000000081525081565b610cbb6040518060400160405280600381526020017f4c4b41000000000000000000000000000000000000000000000000000000000081525081565b610cbb6040518060400160405280600381526020017f555259000000000000000000000000000000000000000000000000000000000081525081565b610cbb6040518060400160405280600381526020017f514154000000000000000000000000000000000000000000000000000000000081525081565b610cbb6040518060400160405280600381526020017f42454e000000000000000000000000000000000000000000000000000000000081525081565b610cbb6040518060400160405280600381526020017f4b484d000000000000000000000000000000000000000000000000000000000081525081565b610cbb6040518060400160405280600381526020017f4e5a4c000000000000000000000000000000000000000000000000000000000081525081565b610cbb6040518060400160405280600381526020017f534155000000000000000000000000000000000000000000000000000000000081525081565b610cbb6040518060400160405280600381526020017f544b4d000000000000000000000000000000000000000000000000000000000081525081565b610cbb6040518060400160405280600381526020017f4a4f52000000000000000000000000000000000000000000000000000000000081525081565b610cbb6040518060400160405280600381526020017f4b4f52000000000000000000000000000000000000000000000000000000000081525081565b610cbb6040518060400160405280600381526020017f53564e000000000000000000000000000000000000000000000000000000000081525081565b610cbb6040518060400160405280600381526020017f484e44000000000000000000000000000000000000000000000000000000000081525081565b610cbb6040518060400160405280600381526020017f455354000000000000000000000000000000000000000000000000000000000081525081565b610cbb6040518060400160405280600381526020017f4e4943000000000000000000000000000000000000000000000000000000000081525081565b610cbb6040518060400160405280600381526020017f53564b000000000000000000000000000000000000000000000000000000000081525081565b610cbb6040518060400160405280600381526020017f415247000000000000000000000000000000000000000000000000000000000081525081565b610cbb6040518060400160405280600381526020017f4d4b44000000000000000000000000000000000000000000000000000000000081525081565b610cbb6040518060400160405280600381526020017f5a4146000000000000000000000000000000000000000000000000000000000081525081565b610cbb6040518060400160405280600381526020017f545556000000000000000000000000000000000000000000000000000000000081525081565b610cbb6040518060400160405280600381526020017f554b52000000000000000000000000000000000000000000000000000000000081525081565b610cbb6040518060400160405280600381526020017f57534d000000000000000000000000000000000000000000000000000000000081525081565b610cbb6040518060400160405280600381526020017f534f4d000000000000000000000000000000000000000000000000000000000081525081565b610cbb6040518060400160405280600381526020017f414647000000000000000000000000000000000000000000000000000000000081525081565b610cbb6040518060400160405280600381526020017f425741000000000000000000000000000000000000000000000000000000000081525081565b610cbb6040518060400160405280600381526020017f43484e000000000000000000000000000000000000000000000000000000000081525081565b610cbb6040518060400160405280600381526020017f445a41000000000000000000000000000000000000000000000000000000000081525081565b610cbb6040518060400160405280600381526020017f47494e000000000000000000000000000000000000000000000000000000000081525081565b610cbb6040518060400160405280600381526020017f4e4f52000000000000000000000000000000000000000000000000000000000081525081565b610cbb6040518060400160405280600381526020017f495352000000000000000000000000000000000000000000000000000000000081525081565b610cbb6040518060400160405280600381526020017f535450000000000000000000000000000000000000000000000000000000000081525081565b610cbb6040518060400160405280600381526020017f415245000000000000000000000000000000000000000000000000000000000081525081565b610cbb6040518060400160405280600381526020017f475244000000000000000000000000000000000000000000000000000000000081525081565b610cbb6040518060400160405280600381526020017f54554e000000000000000000000000000000000000000000000000000000000081525081565b610cbb6040518060400160405280600381526020017f4c4259000000000000000000000000000000000000000000000000000000000081525081565b610cbb6040518060400160405280600381526020017f4f4d4e000000000000000000000000000000000000000000000000000000000081525081565b610cbb6040518060400160405280600381526020017f424853000000000000000000000000000000000000000000000000000000000081525081565b610cbb6040518060400160405280600381526020017f534c56000000000000000000000000000000000000000000000000000000000081525081565b610cbb6040518060400160405280600381526020017f47454f000000000000000000000000000000000000000000000000000000000081525081565b610cbb6040518060400160405280600381526020017f474d42000000000000000000000000000000000000000000000000000000000081525081565b610cbb6040518060400160405280600381526020017f4e4552000000000000000000000000000000000000000000000000000000000081525081565b610cbb6040518060400160405280600381526020017f535552000000000000000000000000000000000000000000000000000000000081525081565b610cbb6040518060400160405280600381526020017f59454d000000000000000000000000000000000000000000000000000000000081525081565b610cbb6040518060400160405280600381526020017f534d52000000000000000000000000000000000000000000000000000000000081525081565b602081526000825180602084015260005b81811015613a775760208186018101516040868401015201613a5a565b5060006040828501015260407fffffffffffffffffffffffffffffffffffffffffffffffffffffffffffffffe0601f8301168401019150509291505056fea164736f6c634300081c000a","linkReferences":{}},"methodIdentifiers":{"AFGHANISTAN()":"e9368d8f","ALBANIA()":"51949b57","ALGERIA()":"eb24e500","ANDORRA()":"4ed9f3aa","ANGOLA()":"2fc789aa","ANTIGUA_AND_BARBUDA()":"3fde8d17","ARGENTINA()":"df5dd7bf","ARMENIA()":"0652b18b","AUSTRALIA()":"b39a7d72","AUSTRIA()":"60293dbc","AZERBAIJAN()":"7cdf0026","BAHAMAS()":"f8518138","BAHRAIN()":"154c610f","BANGLADESH()":"ce08cd9d","BARBADOS()":"6a0c9275","BELARUS()":"67e965e8","BELGIUM()":"ac8c052c","BELIZE()":"0a999bb3","BENIN()":"d59bfd17","BHUTAN()":"54693bab","BOLIVIA()":"65d82c92","BOSNIA_AND_HERZEGOVINA()":"53873d5f","BOTSWANA()":"e9ddb48a","BRAZIL()":"05c0d6b4","BRUNEI()":"bca57000","BULGARIA()":"63e1bb47","BURKINA_FASO()":"2624ce25","BURUNDI()":"9eef7f4e","CAMBODIA()":"d5a1f080","CAMEROON()":"af95e51f","CANADA()":"406ce5bc","CAPE_VERDE()":"61a05b9c","CENTRAL_AFRICAN_REPUBLIC()":"7f2d75ff","CHAD()":"4334a8a5","CHILE()":"5332bb54","CHINA()":"eaa98de8","COLOMBIA()":"0a9d3da7","COMOROS()":"62a77e92","CONGO()":"389f7f7b","CONGO_DR()":"5f8d8544","COSTA_RICA()":"12971ef5","CROATIA()":"322c32d2","CUBA()":"333781be","CYPRUS()":"1aceb859","CZECH_REPUBLIC()":"a906ada2","DENMARK()":"131e1108","DJIBOUTI()":"64598408","DOMINICA()":"1cfd1828","DOMINICAN_REPUBLIC()":"5c28c5b2","ECUADOR()":"444d73a0","EGYPT()":"8e1f0614","EL_SALVADOR()":"f8a110f6","EQUATORIAL_GUINEA()":"9d7c5a00","ERITREA()":"4447f5bb","ESTONIA()":"dd82c4f1","ESWATINI()":"a1255e05","ETHIOPIA()":"8034ea16","FIJI()":"468f2739","FINLAND()":"5fa919ec","FRANCE()":"2c795b43","GABON()":"ba2f2478","GAMBIA()":"fb09898c","GEORGIA()":"fa77b37b","GERMANY()":"66ebe785","GHANA()":"23bffa36","GREECE()":"bed9240f","GRENADA()":"f1e739d5","GUATEMALA()":"73b9bdc6","GUINEA()":"ef977761","GUINEA_BISSAU()":"5249cf2a","GUYANA()":"1e4beb9c","HAITI()":"abbfd5af","HONDURAS()":"dab05d85","HUNGARY()":"4d66b729","ICELAND()":"c55ca299","INDIA()":"7a22ee9b","INDONESIA()":"0c03f87b","IRAN()":"5705c756","IRAQ()":"85f7daa2","IRELAND()":"6883e157","ISRAEL()":"f076b5b8","ITALY()":"3e8319d6","IVORY_COAST()":"2050b72f","JAMAICA()":"6dbb5572","JAPAN()":"00a60203","JORDAN()":"d879e911","KAZAKHSTAN()":"4afda197","KENYA()":"c2b3d1f0","KIRIBATI()":"a1d633b8","KUWAIT()":"d14dfd4f","KYRGYZSTAN()":"56083f16","LAOS()":"c1055a97","LATVIA()":"431b0b22","LEBANON()":"54c6dabf","LESOTHO()":"36a749e0","LIBERIA()":"b502f6d3","LIBYA()":"f652eae0","LIECHTENSTEIN()":"5ff65155","LITHUANIA()":"78d84f49","LUXEMBOURG()":"843f010b","MADAGASCAR()":"b33dc193","MALAWI()":"87064366","MALAYSIA()":"4cbc37ef","MALDIVES()":"9b70eb6f","MALI()":"0ee6aec9","MALTA()":"0a08172d","MARSHALL_ISLANDS()":"c1a235a6","MAURITANIA()":"a9fcb49a","MAURITIUS()":"6db09917","MEXICO()":"892c3526","MICRONESIA()":"bdf3e107","MOLDOVA()":"08c830fd","MONACO()":"5e63b955","MONGOLIA()":"7fa725f7","MONTENEGRO()":"77171df3","MOROCCO()":"62c515d5","MOZAMBIQUE()":"1338e8a1","MYANMAR()":"8396f529","NAMIBIA()":"7c398709","NAURU()":"a0dc9f06","NEPAL()":"660ee0d1","NETHERLANDS()":"32804f59","NEW_ZEALAND()":"d63e1ae4","NICARAGUA()":"ddd25a7c","NIGER()":"fb1319fc","NIGERIA()":"09450df7","NORTH_KOREA()":"344796c0","NORTH_MACEDONIA()":"e2214b51","NORWAY()":"efd5191c","OMAN()":"f78a1b18","PAKISTAN()":"6f25a323","PALAU()":"b451f302","PANAMA()":"2a1d9848","PAPUA_NEW_GUINEA()":"b8c2b520","PARAGUAY()":"08a4d950","PERU()":"8f49d81f","PHILIPPINES()":"6dc18816","POLAND()":"314d63bc","PORTUGAL()":"27603824","QATAR()":"d4c13ec2","ROMANIA()":"1d673fa1","RUSSIA()":"be6f0447","RWANDA()":"3fe86aae","SAINT_KITTS_AND_NEVIS()":"08edfba0","SAINT_LUCIA()":"71b32a13","SAINT_VINCENT_AND_THE_GRENADINES()":"bc279154","SAMOA()":"e8a13bb0","SAN_MARINO()":"ff253856","SAO_TOME_AND_PRINCIPE()":"f1afeeb3","SAUDI_ARABIA()":"d6e126d9","SENEGAL()":"b6e5fc4a","SERBIA()":"09084df6","SEYCHELLES()":"a571f993","SIERRA_LEONE()":"745531f7","SINGAPORE()":"a017ed9a","SLOVAKIA()":"df1ef398","SLOVENIA()":"d9ef5ac5","SOLOMON_ISLANDS()":"2e3ca6dd","SOMALIA()":"e8b90b07","SOUTH_AFRICA()":"e32d37c7","SOUTH_KOREA()":"d8fa426d","SOUTH_SUDAN()":"4a106bb6","SPAIN()":"174c571b","SRI_LANKA()":"d32060a3","SUDAN()":"b3ad5bcb","SURINAME()":"fd342d55","SWEDEN()":"312dcc0f","SWITZERLAND()":"55f7710d","SYRIA()":"3070e97b","TAIWAN()":"424f7171","TAJIKISTAN()":"b399f116","TANZANIA()":"0f053c3d","THAILAND()":"95c95884","TIMOR_LESTE()":"2b96f437","TOGO()":"2a47695e","TONGA()":"91f558a2","TRINIDAD_AND_TOBAGO()":"8f84622c","TUNISIA()":"f2a9c5d2","TURKEY()":"c81bb409","TURKMENISTAN()":"d81aaa62","TUVALU()":"e6901916","UGANDA()":"7a7573f6","UKRAINE()":"e6f1b19f","UNITED_ARAB_EMIRATES()":"f1c5f04e","UNITED_KINGDOM()":"5bc170a4","UNITED_STATES()":"1bf8be85","URUGUAY()":"d408cb8d","UZBEKISTAN()":"679fb578","VANUATU()":"95d84254","VATICAN()":"7b528dbd","VENEZUELA()":"ca89a9eb","VIETNAM()":"62874fa5","YEMEN()":"fd6159d9","ZAMBIA()":"cebf3110","ZIMBABWE()":"621e3fd9"},"id":23}