{"abi":[{"type":"constructor","inputs":[{"name":"identityVerificationHubV2Address","type":"address","internalType":"address"},{"name":"scope","type":"string","internalType":"string"},{"name":"_verificationConfig","type":"tuple","internalType":"struct SelfUtils.UnformattedVerificationConfigV2","components":[{"name":"olderThan","type":"uint256","internalType":"uint256"},{"name":"forbiddenCountries","type":"string[]","internalType":"string[]"},{"name":"ofacEnabled","type":"bool","internalType":"bool"}]}],"stateMutability":"nonpayable"},{"type":"function","name":"getConfigId","inputs":[{"name":"","type":"bytes32","internalType":"bytes32"},{"name":"","type":"bytes32","internalType":"bytes32"},{"name":"","type":"bytes","internalType":"bytes"}],"outputs":[{"name":"","type":"bytes32","internalType":"bytes32"}],"stateMutability":"view"},{"type":"function","name":"lastOutput","inputs":[],"outputs":[{"name":"attestationId","type":"bytes32","internalType":"bytes32"},{"name":"userIdentifier","type":"uint256","internalType":"uint256"},{"name":"nullifier","type":"uint256","internalType":"uint256"},{"name":"issuingState","type":"string","internalType":"string"},{"name":"idNumber","type":"string","internalType":"string"},{"name":"nationality","type":"string","internalType":"string"},{"name":"dateOfBirth","type":"string","internalType":"string"},{"name":"gender","type":"string","internalType":"string"},{"name":"expiryDate","type":"string","internalType":"string"},{"name":"olderThan","type":"uint256","internalType":"uint256"}],"stateMutability":"view"},{"type":"function","name":"lastUserAddress","inputs":[],"outputs":[{"name":"","type":"address","internalType":"address"}],"stateMutability":"view"},{"type":"function","name":"lastUserData","inputs":[],"outputs":[{"name":"","type":"bytes","internalType":"bytes"}],"stateMutability":"view"},{"type":"function","name":"onVerificationSuccess","inputs":[{"name":"output","type":"bytes","internalType":"bytes"},{"name":"userData","type":"bytes","internalType":"bytes"}],"outputs":[],"stateMutability":"nonpayable"},{"type":"function","name":"scope","inputs":[],"outputs":[{"name":"","type":"uint256","internalType":"uint256"}],"stateMutability":"view"},{"type":"function","name":"setConfigId","inputs":[{"name":"configId","type":"bytes32","internalType":"bytes32"}],"outputs":[],"stateMutability":"nonpayable"},{"type":"function","name":"verificationConfig","inputs":[],"outputs":[{"name":"olderThanEnabled","type":"bool","internalType":"bool"},{"name":"olderThan","type":"uint256","internalType":"uint256"},{"name":"forbiddenCountriesEnabled","type":"bool","internalType":"bool"}],"stateMutability":"view"},{"type":"function","name":"verificationConfigId","inputs":[],"outputs":[{"name":"","type":"bytes32","internalType":"bytes32"}],"stateMutability":"view"},{"type":"function","name":"verificationSuccessful","inputs":[],"outputs":[{"name":"","type":"bool","internalType":"bool"}],"stateMutability":"view"},{"type":"function","name":"verifySelfProof","inputs":[{"name":"proofPayload","type":"bytes","internalType":"bytes"},{"name":"userContextData","type":"bytes","internalType":"bytes"}],"outputs":[],"stateMutability":"nonpayable"},{"type":"event","name":"VerificationCompleted","inputs":[{"name":"output","type":"tuple","indexed":false,"internalType":"struct ISelfVerificationRoot.GenericDiscloseOutputV2","components":[{"name":"attestationId","type":"bytes32","internalType":"bytes32"},{"name":"userIdentifier","type":"uint256","internalType":"uint256"},{"name":"nullifier","type":"uint256","internalType":"uint256"},{"name":"forbiddenCountriesListPacked","type":"uint256[4]","internalType":"uint256[4]"},{"name":"issuingState","type":"string","internalType":"string"},{"name":"name","type":"string[]","internalType":"string[]"},{"name":"idNumber","type":"string","internalType":"string"},{"name":"nationality","type":"string","internalType":"string"},{"name":"dateOfBirth","type":"string","internalType":"string"},{"name":"gender","type":"string","internalType":"string"},{"name":"expiryDate","type":"string","internalType":"string"},{"name":"olderThan","type":"uint256","internalType":"uint256"},{"name":"ofac","type":"bool[3]","internalType":"bool[3]"}]},{"name":"userData","type":"bytes","indexed":false,"internalType":"bytes"}],"anonymous":false},{"type":"error","name":"InvalidDataFormat","inputs":[]},{"type":"error","name":"UnauthorizedCaller","inputs":[]}],"bytecode":{"object":"0x60a060405234801561001057600080fd5b506040516126bb3803806126bb83398101604081905261002f91610b6c565b6001600160a01b0383166080528282610050308261004b610135565b61018a565b6000555061005f905081610247565b80516013805491151560ff199283161781556020830151601455604083015160158054911515919093161790915560608201516100a0906016906004610900565b5060808201516100b6906007830190600361093e565b50506040516309ddb09160e01b81526001600160a01b03851691506309ddb091906100e690601390600401610cd8565b6020604051808303816000875af1158015610105573d6000803e3d6000fd5b505050506040513d601f19601f820116820180604052508101906101299190610d60565b601b5550610e7d915050565b60004661a4ec81900361015d5773f134707a4c4a3a76b8410fc0294d620a7c34158191505090565b8062aa044c0361018257730a782f7f9f8aac6e0bacaf3cd4aa292c3275c6f291505090565b600091505090565b60006001600160a01b0382166101a257506000610240565b60006101ae85846102b9565b905060006101bb8561037d565b604080518082018252848152602081018390529051632b0aac7f60e11b81529192506001600160a01b0386169163561558fe916101fa91600401610d79565b602060405180830381865afa158015610217573d6000803e3d6000fd5b505050506040513d601f19601f8201168201806040525081019061023b9190610d60565b925050505b9392505050565b61024f6109cb565b610257610a09565b6040838101805115158352805115156020808501919091529051151583830152815160a081018352855115158152855181830152908501805151151592820192909252905160608201906102aa90610495565b81526020019190915292915050565b6000806102c58461065d565b905060006102dd6102d88383601f61083e565b61037d565b905060006102f16102d884601f602a61083e565b604080518082018252848152602081018390529051632b0aac7f60e11b81529192506001600160a01b0387169163561558fe9161033091600401610d79565b602060405180830381865afa15801561034d573d6000803e3d6000fd5b505050506040513d601f19601f820116820180604052508101906103719190610d60565b93505050505b92915050565b600080829050601f815111156103e85760405162461bcd60e51b815260206004820152602560248201527f537472696e6720746f6f206c6f6e6720666f7220426967496e7420636f6e76656044820152643939b4b7b760d91b60648201526084015b60405180910390fd5b6000805b825181101561048d57607f83828151811061040957610409610daa565b016020015160f81c111561045f5760405162461bcd60e51b815260206004820152601c60248201527f4e6f6e2d4153434949206368617261637465722064657465637465640000000060448201526064016103df565b82818151811061047157610471610daa565b60209101015160f81c60089290921b91909117906001016103ec565b509392505050565b61049d610a27565b601f6004606060005b85518110156105725760008682815181106104c3576104c3610daa565b6020026020010151905080516003146105445760405162461bcd60e51b815260206004820152603760248201527f496e76616c696420636f756e74727920636f64653a206d75737420626520657860448201527f6163746c7920332063686172616374657273206c6f6e6700000000000000000060648201526084016103df565b8281604051602001610557929190610dc0565b60408051601f198184030181529190529250506001016104a6565b5080518360008160016105858286610e05565b61058f9190610e18565b6105999190610e2b565b905060005b81811080156105ac57508581105b15610651576000805b84811015610625576000816105ca8588610e4d565b6105d49190610e05565b90508681101561061c5760008882815181106105f2576105f2610daa565b016020015160f81c90506000610609846008610e4d565b905061061782821b86610e05565b945050505b506001016105b5565b508089836004811061063957610639610daa565b6020020152508061064981610e64565b91505061059e565b50505050505050919050565b604080518082018252601081526f181899199a1a9b1b9c1cb0b131b232b360811b60208201528151602a80825260608281019094526001600160a01b0385169291600091602082018180368337019050509050600360fc1b816000815181106106c8576106c8610daa565b60200101906001600160f81b031916908160001a905350600f60fb1b816001815181106106f7576106f7610daa565b60200101906001600160f81b031916908160001a90535060005b6014811015610835578260048561072984600c610e05565b6020811061073957610739610daa565b1a60f81b6001600160f81b031916901c60f81c60ff168151811061075f5761075f610daa565b01602001516001600160f81b0319168261077a836002610e4d565b610785906002610e05565b8151811061079557610795610daa565b60200101906001600160f81b031916908160001a90535082846107b983600c610e05565b602081106107c9576107c9610daa565b825191901a600f169081106107e0576107e0610daa565b01602001516001600160f81b031916826107fb836002610e4d565b610806906003610e05565b8151811061081657610816610daa565b60200101906001600160f81b031916908160001a905350600101610711565b50949350505050565b606083600061084d8585610e18565b6001600160401b0381111561086457610864610a5a565b6040519080825280601f01601f19166020018201604052801561088e576020820181803683370190505b509050845b848110156108f6578281815181106108ad576108ad610daa565b01602001516001600160f81b031916826108c78884610e18565b815181106108d7576108d7610daa565b60200101906001600160f81b031916908160001a905350600101610893565b5095945050505050565b826004810192821561092e579160200282015b8281111561092e578251825591602001919060010190610913565b5061093a929150610a45565b5090565b60018301918390821561092e5791602002820160005b8382111561099157835183826101000a81548160ff0219169083151502179055509260200192600101602081600001049283019260010302610954565b80156109be5782816101000a81549060ff0219169055600101602081600001049283019260010302610991565b505061093a929150610a45565b6040518060a00160405280600015158152602001600081526020016000151581526020016109f7610a27565b8152602001610a04610a09565b905290565b60405180606001604052806003906020820280368337509192915050565b60405180608001604052806004906020820280368337509192915050565b5b8082111561093a5760008155600101610a46565b634e487b7160e01b600052604160045260246000fd5b604051606081016001600160401b0381118282101715610a9257610a92610a5a565b60405290565b604051601f8201601f191681016001600160401b0381118282101715610ac057610ac0610a5a565b604052919050565b60005b83811015610ae3578181015183820152602001610acb565b50506000910152565b600082601f830112610afd57600080fd5b81516001600160401b03811115610b1657610b16610a5a565b610b29601f8201601f1916602001610a98565b818152846020838601011115610b3e57600080fd5b610b4f826020830160208701610ac8565b949350505050565b80518015158114610b6757600080fd5b919050565b600080600060608486031215610b8157600080fd5b83516001600160a01b0381168114610b9857600080fd5b60208501519093506001600160401b03811115610bb457600080fd5b610bc086828701610aec565b604086015190935090506001600160401b03811115610bde57600080fd5b840160608187031215610bf057600080fd5b610bf8610a70565b8151815260208201516001600160401b03811115610c1557600080fd5b8201601f81018813610c2657600080fd5b80516001600160401b03811115610c3f57610c3f610a5a565b8060051b610c4f60208201610a98565b9182526020818401810192908101908b841115610c6b57600080fd5b6020850192505b83831015610cb15782516001600160401b03811115610c9057600080fd5b610c9f8d602083890101610aec565b83525060209283019290910190610c72565b602086015250610cc79250505060408301610b57565b604082015280925050509250925092565b815460ff9081161515825260018301546020830152600283015416151560408201526101408101606082016003840160005b6004811015610d29578154835260209092019160019182019101610d0a565b505050600783015460ff808216151560e0850152600882901c8116151561010085015260109190911c161515610120830152610377565b600060208284031215610d7257600080fd5b5051919050565b60408101818360005b6002811015610da1578151835260209283019290910190600101610d82565b50505092915050565b634e487b7160e01b600052603260045260246000fd5b60008351610dd2818460208801610ac8565b835190830190610de6818360208801610ac8565b01949350505050565b634e487b7160e01b600052601160045260246000fd5b8082018082111561037757610377610def565b8181038181111561037757610377610def565b600082610e4857634e487b7160e01b600052601260045260246000fd5b500490565b808202811582820484141761037757610377610def565b600060018201610e7657610e76610def565b5060010190565b60805161181c610e9f600039600081816102b301526107d2015261181c6000f3fe608060405234801561001057600080fd5b50600436106100c95760003560e01c80638d2d8d6a11610081578063bb4437441161005b578063bb443744146101de578063c385abae146101e7578063d161802b146101fa57600080fd5b80638d2d8d6a1461019357806397228a7e146101a8578063ada1b319146101c657600080fd5b80635417c755116100b25780635417c7551461011f5780636e62d0a8146101645780637793a8431461017657600080fd5b8063037b410e146100ce57806311e37ed01461010a575b600080fd5b6013546014546015546100e69260ff90811692911683565b60408051931515845260208401929092521515908201526060015b60405180910390f35b61011261020d565b6040516101019190610c31565b601c5461013f9073ffffffffffffffffffffffffffffffffffffffff1681565b60405173ffffffffffffffffffffffffffffffffffffffff9091168152602001610101565b6000545b604051908152602001610101565b6001546101839060ff1681565b6040519015158152602001610101565b6101a66101a1366004610d8f565b61029b565b005b6101b0610331565b6040516101019a99989796959493929190610df8565b6101686101d4366004610e9b565b601b549392505050565b610168601b5481565b6101a66101f5366004610eeb565b601b55565b6101a6610208366004610f4d565b61069e565b6012805461021a90610fbe565b80601f016020809104026020016040519081016040528092919081815260200182805461024690610fbe565b80156102935780601f1061026857610100808354040283529160200191610293565b820191906000526020600020905b81548152906001019060200180831161027657829003601f168201915b505050505081565b3373ffffffffffffffffffffffffffffffffffffffff7f0000000000000000000000000000000000000000000000000000000000000000161461030a576040517f5c427cd900000000000000000000000000000000000000000000000000000000815260040160405180910390fd5b60008280602001905181019061032091906111ad565b905061032c818361088c565b505050565b60028054600354600454600980549394929391929161034f90610fbe565b80601f016020809104026020016040519081016040528092919081815260200182805461037b90610fbe565b80156103c85780601f1061039d576101008083540402835291602001916103c8565b820191906000526020600020905b8154815290600101906020018083116103ab57829003601f168201915b5050505050908060090180546103dd90610fbe565b80601f016020809104026020016040519081016040528092919081815260200182805461040990610fbe565b80156104565780601f1061042b57610100808354040283529160200191610456565b820191906000526020600020905b81548152906001019060200180831161043957829003601f168201915b50505050509080600a01805461046b90610fbe565b80601f016020809104026020016040519081016040528092919081815260200182805461049790610fbe565b80156104e45780601f106104b9576101008083540402835291602001916104e4565b820191906000526020600020905b8154815290600101906020018083116104c757829003601f168201915b50505050509080600b0180546104f990610fbe565b80601f016020809104026020016040519081016040528092919081815260200182805461052590610fbe565b80156105725780601f1061054757610100808354040283529160200191610572565b820191906000526020600020905b81548152906001019060200180831161055557829003601f168201915b50505050509080600c01805461058790610fbe565b80601f01602080910402602001604051908101604052809291908181526020018280546105b390610fbe565b80156106005780601f106105d557610100808354040283529160200191610600565b820191906000526020600020905b8154815290600101906020018083116105e357829003601f168201915b50505050509080600d01805461061590610fbe565b80601f016020809104026020016040519081016040528092919081815260200182805461064190610fbe565b801561068e5780601f106106635761010080835404028352916020019161068e565b820191906000526020600020905b81548152906001019060200180831161067157829003601f168201915b50505050509080600e015490508a565b60208310156106d9576040517fa512e2ff00000000000000000000000000000000000000000000000000000000815260040160405180910390fd5b6040811015610714576040517fa512e2ff00000000000000000000000000000000000000000000000000000000815260040160405180910390fd5b833560006107256020828587611380565b61072e916113aa565b90506000610740604060208688611380565b610749916113aa565b9050600061075a8560408189611380565b8080601f0160208091040260200160405190810160405280939291908181526020018383808284376000920182905250601b5494955093925061079b915050565b905060006002600060081b6000548c8c6040516020016107bf9594939291906113e7565b60405160208183030381529060405290507f000000000000000000000000000000000000000000000000000000000000000073ffffffffffffffffffffffffffffffffffffffff1663f7e83aee82848b8b60405160200161082293929190611456565b6040516020818303038152906040526040518363ffffffff1660e01b815260040161084e929190611470565b600060405180830381600087803b15801561086857600080fd5b505af115801561087c573d6000803e3d6000fd5b5050505050505050505050505050565b600180547fffffffffffffffffffffffffffffffffffffffffffffffffffffffffffffff0016811790558151600290815560208301516003556040830151600490815560608401518492916108e391600591610a3b565b50608082015160078201906108f890826114ec565b5060a08201518051610914916008840191602090910190610a79565b5060c0820151600982019061092990826114ec565b5060e0820151600a82019061093e90826114ec565b50610100820151600b82019061095490826114ec565b50610120820151600c82019061096a90826114ec565b50610140820151600d82019061098090826114ec565b50610160820151600e8201556101808201516109a290600f8301906003610acb565b50601291506109b3905082826114ec565b506020820151601c80547fffffffffffffffffffffffff00000000000000000000000000000000000000001673ffffffffffffffffffffffffffffffffffffffff9092169190911790556040517f4d69fc00874a9f9f03a2bf733b9bddf88ea7b7cc852031f3491fcefe2eabe23b90610a2f90849084906116cd565b60405180910390a15050565b8260048101928215610a69579160200282015b82811115610a69578251825591602001919060010190610a4e565b50610a75929150610b54565b5090565b828054828255906000526020600020908101928215610abf579160200282015b82811115610abf5782518290610aaf90826114ec565b5091602001919060010190610a99565b50610a75929150610b69565b600183019183908215610a695791602002820160005b83821115610b1e57835183826101000a81548160ff0219169083151502179055509260200192600101602081600001049283019260010302610ae1565b8015610b4b5782816101000a81549060ff0219169055600101602081600001049283019260010302610b1e565b5050610a759291505b5b80821115610a755760008155600101610b55565b80821115610a75576000610b7d8282610b86565b50600101610b69565b508054610b9290610fbe565b6000825580601f10610ba2575050565b601f016020900490600052602060002090810190610bc09190610b54565b50565b60005b83811015610bde578181015183820152602001610bc6565b50506000910152565b60008151808452610bff816020860160208601610bc3565b601f017fffffffffffffffffffffffffffffffffffffffffffffffffffffffffffffffe0169290920160200192915050565b602081526000610c446020830184610be7565b9392505050565b7f4e487b7100000000000000000000000000000000000000000000000000000000600052604160045260246000fd5b6040516101a0810167ffffffffffffffff81118282101715610c9e57610c9e610c4b565b60405290565b604051601f82017fffffffffffffffffffffffffffffffffffffffffffffffffffffffffffffffe016810167ffffffffffffffff81118282101715610ceb57610ceb610c4b565b604052919050565b600067ffffffffffffffff821115610d0d57610d0d610c4b565b50601f017fffffffffffffffffffffffffffffffffffffffffffffffffffffffffffffffe01660200190565b600082601f830112610d4a57600080fd5b8135610d5d610d5882610cf3565b610ca4565b818152846020838601011115610d7257600080fd5b816020850160208301376000918101602001919091529392505050565b60008060408385031215610da257600080fd5b823567ffffffffffffffff811115610db957600080fd5b610dc585828601610d39565b925050602083013567ffffffffffffffff811115610de257600080fd5b610dee85828601610d39565b9150509250929050565b8a815289602082015288604082015261014060608201526000610e1f61014083018a610be7565b8281036080840152610e31818a610be7565b905082810360a0840152610e458189610be7565b905082810360c0840152610e598188610be7565b905082810360e0840152610e6d8187610be7565b9050828103610100840152610e828186610be7565b915050826101208301529b9a5050505050505050505050565b600080600060608486031215610eb057600080fd5b8335925060208401359150604084013567ffffffffffffffff811115610ed557600080fd5b610ee186828701610d39565b9150509250925092565b600060208284031215610efd57600080fd5b5035919050565b60008083601f840112610f1657600080fd5b50813567ffffffffffffffff811115610f2e57600080fd5b602083019150836020828501011115610f4657600080fd5b9250929050565b60008060008060408587031215610f6357600080fd5b843567ffffffffffffffff811115610f7a57600080fd5b610f8687828801610f04565b909550935050602085013567ffffffffffffffff811115610fa657600080fd5b610fb287828801610f04565b95989497509550505050565b600181811c90821680610fd257607f821691505b60208210810361100b577f4e487b7100000000000000000000000000000000000000000000000000000000600052602260045260246000fd5b50919050565b600082601f83011261102257600080fd5b61102c6080610ca4565b80608084018581111561103e57600080fd5b845b81811015611058578051845260209384019301611040565b509095945050505050565b600082601f83011261107457600080fd5b8151611082610d5882610cf3565b81815284602083860101111561109757600080fd5b6110a8826020830160208701610bc3565b949350505050565b600082601f8301126110c157600080fd5b815167ffffffffffffffff8111156110db576110db610c4b565b8060051b6110eb60208201610ca4565b9182526020818501810192908101908684111561110757600080fd5b6020860192505b8383101561114e57825167ffffffffffffffff81111561112d57600080fd5b61113c886020838a0101611063565b8352506020928301929091019061110e565b9695505050505050565b600082601f83011261116957600080fd5b6111736060610ca4565b80606084018581111561118557600080fd5b845b81811015611058578051801515811461119f57600080fd5b845260209384019301611187565b6000602082840312156111bf57600080fd5b815167ffffffffffffffff8111156111d657600080fd5b820161024081850312156111e957600080fd5b6111f1610c7a565b8151815260208083015190820152604080830151908201526112168560608401611011565b606082015260e082015167ffffffffffffffff81111561123557600080fd5b61124186828501611063565b60808301525061010082015167ffffffffffffffff81111561126257600080fd5b61126e868285016110b0565b60a08301525061012082015167ffffffffffffffff81111561128f57600080fd5b61129b86828501611063565b60c08301525061014082015167ffffffffffffffff8111156112bc57600080fd5b6112c886828501611063565b60e08301525061016082015167ffffffffffffffff8111156112e957600080fd5b6112f586828501611063565b6101008301525061018082015167ffffffffffffffff81111561131757600080fd5b61132386828501611063565b610120830152506101a082015167ffffffffffffffff81111561134557600080fd5b61135186828501611063565b610140830152506101c0820151610160820152611372856101e08401611158565b610180820152949350505050565b6000808585111561139057600080fd5b8386111561139d57600080fd5b5050820193919092039150565b803560208310156113e1577fffffffffffffffffffffffffffffffffffffffffffffffffffffffffffffffff602084900360031b1b165b92915050565b7fff000000000000000000000000000000000000000000000000000000000000008660f81b1681527fffffffffffffffffffffffffffffffffffffffffffffffffffffffffffffff00851660018201528360208201528183604083013760009101604001908152949350505050565b838152818360208301376000910160200190815292915050565b6040815260006114836040830185610be7565b82810360208401526114958185610be7565b95945050505050565b601f82111561032c57806000526020600020601f840160051c810160208510156114c55750805b601f840160051c820191505b818110156114e557600081556001016114d1565b5050505050565b815167ffffffffffffffff81111561150657611506610c4b565b61151a816115148454610fbe565b8461149e565b6020601f82116001811461156c57600083156115365750848201515b7fffffffffffffffffffffffffffffffffffffffffffffffffffffffffffffffff600385901b1c1916600184901b1784556114e5565b6000848152602081207fffffffffffffffffffffffffffffffffffffffffffffffffffffffffffffffe08516915b828110156115ba578785015182556020948501946001909201910161159a565b50848210156115f657868401517fffffffffffffffffffffffffffffffffffffffffffffffffffffffffffffffff600387901b60f8161c191681555b50505050600190811b01905550565b8060005b6004811015611628578151845260209384019390910190600101611609565b50505050565b600082825180855260208501945060208160051b8301016020850160005b8381101561169c577fffffffffffffffffffffffffffffffffffffffffffffffffffffffffffffffe0858403018852611686838351610be7565b602098890198909350919091019060010161164c565b50909695505050505050565b8060005b600381101561162857815115158452602093840193909101906001016116ac565b604081528251604082015260208301516060820152604083015160808201526000606084015161170060a0840182611605565b50608084015161024061012084015261171d610280840182610be7565b905060a0850151603f198483030161014085015261173b828261162e565b91505060c0850151603f198483030161016085015261175a8282610be7565b91505060e0850151603f19848303016101808501526117798282610be7565b915050610100850151603f19848303016101a08501526117998282610be7565b915050610120850151603f19848303016101c08501526117b98282610be7565b915050610140850151603f19848303016101e08501526117d98282610be7565b9150506101608501516102008401526101808501516117fc6102208501826116a8565b5082810360208401526114958185610be756fea164736f6c634300081c000a","linkReferences":{}},"methodIdentifiers":{"getConfigId(bytes32,bytes32,bytes)":"ada1b319","lastOutput()":"97228a7e","lastUserAddress()":"5417c755","lastUserData()":"11e37ed0","onVerificationSuccess(bytes,bytes)":"8d2d8d6a","scope()":"6e62d0a8","setConfigId(bytes32)":"c385abae","verificationConfig()":"037b410e","verificationConfigId()":"bb443744","verificationSuccessful()":"7793a843","verifySelfProof(bytes,bytes)":"d161802b"},"id":29}