{
  "_format": "hh3-artifact-1",
  "contractName": "OrderRegistry",
  "sourceName": "contracts/OrderRegistry.sol",
  "abi": [
    {
      "inputs": [
        {
          "internalType": "address",
          "name": "recorder",
          "type": "address"
        }
      ],
      "stateMutability": "nonpayable",
      "type": "constructor"
    },
    {
      "inputs": [],
      "name": "AccessControlBadConfirmation",
      "type": "error"
    },
    {
      "inputs": [
        {
          "internalType": "address",
          "name": "account",
          "type": "address"
        },
        {
          "internalType": "bytes32",
          "name": "neededRole",
          "type": "bytes32"
        }
      ],
      "name": "AccessControlUnauthorizedAccount",
      "type": "error"
    },
    {
      "anonymous": false,
      "inputs": [
        {
          "indexed": true,
          "internalType": "bytes32",
          "name": "orderId",
          "type": "bytes32"
        },
        {
          "indexed": true,
          "internalType": "bytes32",
          "name": "userId",
          "type": "bytes32"
        },
        {
          "indexed": false,
          "internalType": "enum OrderRegistry.DeliveryFailureReason",
          "name": "reason",
          "type": "uint8"
        },
        {
          "indexed": false,
          "internalType": "uint8",
          "name": "attemptNumber",
          "type": "uint8"
        }
      ],
      "name": "DeliveryFailed",
      "type": "event"
    },
    {
      "anonymous": false,
      "inputs": [
        {
          "indexed": true,
          "internalType": "bytes32",
          "name": "orderId",
          "type": "bytes32"
        },
        {
          "indexed": true,
          "internalType": "bytes32",
          "name": "userId",
          "type": "bytes32"
        },
        {
          "indexed": false,
          "internalType": "uint256",
          "name": "orderValue",
          "type": "uint256"
        },
        {
          "indexed": false,
          "internalType": "string",
          "name": "productCategory",
          "type": "string"
        }
      ],
      "name": "OrderCreated",
      "type": "event"
    },
    {
      "anonymous": false,
      "inputs": [
        {
          "indexed": true,
          "internalType": "bytes32",
          "name": "orderId",
          "type": "bytes32"
        },
        {
          "indexed": true,
          "internalType": "bytes32",
          "name": "userId",
          "type": "bytes32"
        },
        {
          "indexed": false,
          "internalType": "enum OrderRegistry.OrderStatus",
          "name": "oldStatus",
          "type": "uint8"
        },
        {
          "indexed": false,
          "internalType": "enum OrderRegistry.OrderStatus",
          "name": "newStatus",
          "type": "uint8"
        },
        {
          "indexed": false,
          "internalType": "uint256",
          "name": "timestamp",
          "type": "uint256"
        }
      ],
      "name": "OrderStatusUpdated",
      "type": "event"
    },
    {
      "anonymous": false,
      "inputs": [
        {
          "indexed": true,
          "internalType": "bytes32",
          "name": "orderId",
          "type": "bytes32"
        },
        {
          "indexed": true,
          "internalType": "bytes32",
          "name": "userId",
          "type": "bytes32"
        },
        {
          "indexed": false,
          "internalType": "uint256",
          "name": "returnedAt",
          "type": "uint256"
        }
      ],
      "name": "ProductReturned",
      "type": "event"
    },
    {
      "anonymous": false,
      "inputs": [
        {
          "indexed": true,
          "internalType": "bytes32",
          "name": "role",
          "type": "bytes32"
        },
        {
          "indexed": true,
          "internalType": "bytes32",
          "name": "previousAdminRole",
          "type": "bytes32"
        },
        {
          "indexed": true,
          "internalType": "bytes32",
          "name": "newAdminRole",
          "type": "bytes32"
        }
      ],
      "name": "RoleAdminChanged",
      "type": "event"
    },
    {
      "anonymous": false,
      "inputs": [
        {
          "indexed": true,
          "internalType": "bytes32",
          "name": "role",
          "type": "bytes32"
        },
        {
          "indexed": true,
          "internalType": "address",
          "name": "account",
          "type": "address"
        },
        {
          "indexed": true,
          "internalType": "address",
          "name": "sender",
          "type": "address"
        }
      ],
      "name": "RoleGranted",
      "type": "event"
    },
    {
      "anonymous": false,
      "inputs": [
        {
          "indexed": true,
          "internalType": "bytes32",
          "name": "role",
          "type": "bytes32"
        },
        {
          "indexed": true,
          "internalType": "address",
          "name": "account",
          "type": "address"
        },
        {
          "indexed": true,
          "internalType": "address",
          "name": "sender",
          "type": "address"
        }
      ],
      "name": "RoleRevoked",
      "type": "event"
    },
    {
      "inputs": [],
      "name": "DEFAULT_ADMIN_ROLE",
      "outputs": [
        {
          "internalType": "bytes32",
          "name": "",
          "type": "bytes32"
        }
      ],
      "stateMutability": "view",
      "type": "function"
    },
    {
      "inputs": [],
      "name": "RECORDER_ROLE",
      "outputs": [
        {
          "internalType": "bytes32",
          "name": "",
          "type": "bytes32"
        }
      ],
      "stateMutability": "view",
      "type": "function"
    },
    {
      "inputs": [
        {
          "internalType": "bytes32",
          "name": "orderId",
          "type": "bytes32"
        },
        {
          "internalType": "bytes32",
          "name": "userId",
          "type": "bytes32"
        },
        {
          "internalType": "uint256",
          "name": "orderValue",
          "type": "uint256"
        },
        {
          "internalType": "string",
          "name": "productCategory",
          "type": "string"
        },
        {
          "internalType": "string",
          "name": "destination",
          "type": "string"
        }
      ],
      "name": "createOrder",
      "outputs": [],
      "stateMutability": "nonpayable",
      "type": "function"
    },
    {
      "inputs": [
        {
          "internalType": "bytes32",
          "name": "orderId",
          "type": "bytes32"
        }
      ],
      "name": "deactivateOrder",
      "outputs": [],
      "stateMutability": "nonpayable",
      "type": "function"
    },
    {
      "inputs": [
        {
          "internalType": "bytes32",
          "name": "orderId",
          "type": "bytes32"
        }
      ],
      "name": "getOrder",
      "outputs": [
        {
          "components": [
            {
              "internalType": "bytes32",
              "name": "orderId",
              "type": "bytes32"
            },
            {
              "internalType": "bytes32",
              "name": "userId",
              "type": "bytes32"
            },
            {
              "internalType": "uint256",
              "name": "orderValue",
              "type": "uint256"
            },
            {
              "internalType": "uint256",
              "name": "createdAt",
              "type": "uint256"
            },
            {
              "internalType": "uint256",
              "name": "updatedAt",
              "type": "uint256"
            },
            {
              "internalType": "enum OrderRegistry.OrderStatus",
              "name": "status",
              "type": "uint8"
            },
            {
              "internalType": "enum OrderRegistry.DeliveryFailureReason",
              "name": "failureReason",
              "type": "uint8"
            },
            {
              "internalType": "string",
              "name": "productCategory",
              "type": "string"
            },
            {
              "internalType": "uint8",
              "name": "deliveryAttempts",
              "type": "uint8"
            },
            {
              "internalType": "uint256",
              "name": "returnedAt",
              "type": "uint256"
            },
            {
              "internalType": "bool",
              "name": "isActive",
              "type": "bool"
            },
            {
              "internalType": "string",
              "name": "destination",
              "type": "string"
            }
          ],
          "internalType": "struct OrderRegistry.Order",
          "name": "",
          "type": "tuple"
        }
      ],
      "stateMutability": "view",
      "type": "function"
    },
    {
      "inputs": [
        {
          "internalType": "bytes32",
          "name": "userId",
          "type": "bytes32"
        },
        {
          "internalType": "enum OrderRegistry.OrderStatus",
          "name": "status",
          "type": "uint8"
        }
      ],
      "name": "getOrdersByStatus",
      "outputs": [
        {
          "components": [
            {
              "internalType": "bytes32",
              "name": "orderId",
              "type": "bytes32"
            },
            {
              "internalType": "bytes32",
              "name": "userId",
              "type": "bytes32"
            },
            {
              "internalType": "uint256",
              "name": "orderValue",
              "type": "uint256"
            },
            {
              "internalType": "uint256",
              "name": "createdAt",
              "type": "uint256"
            },
            {
              "internalType": "uint256",
              "name": "updatedAt",
              "type": "uint256"
            },
            {
              "internalType": "enum OrderRegistry.OrderStatus",
              "name": "status",
              "type": "uint8"
            },
            {
              "internalType": "enum OrderRegistry.DeliveryFailureReason",
              "name": "failureReason",
              "type": "uint8"
            },
            {
              "internalType": "string",
              "name": "productCategory",
              "type": "string"
            },
            {
              "internalType": "uint8",
              "name": "deliveryAttempts",
              "type": "uint8"
            },
            {
              "internalType": "uint256",
              "name": "returnedAt",
              "type": "uint256"
            },
            {
              "internalType": "bool",
              "name": "isActive",
              "type": "bool"
            },
            {
              "internalType": "string",
              "name": "destination",
              "type": "string"
            }
          ],
          "internalType": "struct OrderRegistry.Order[]",
          "name": "",
          "type": "tuple[]"
        }
      ],
      "stateMutability": "view",
      "type": "function"
    },
    {
      "inputs": [
        {
          "internalType": "bytes32",
          "name": "userId",
          "type": "bytes32"
        },
        {
          "internalType": "uint256",
          "name": "daysSince",
          "type": "uint256"
        }
      ],
      "name": "getRecentOrders",
      "outputs": [
        {
          "components": [
            {
              "internalType": "bytes32",
              "name": "orderId",
              "type": "bytes32"
            },
            {
              "internalType": "bytes32",
              "name": "userId",
              "type": "bytes32"
            },
            {
              "internalType": "uint256",
              "name": "orderValue",
              "type": "uint256"
            },
            {
              "internalType": "uint256",
              "name": "createdAt",
              "type": "uint256"
            },
            {
              "internalType": "uint256",
              "name": "updatedAt",
              "type": "uint256"
            },
            {
              "internalType": "enum OrderRegistry.OrderStatus",
              "name": "status",
              "type": "uint8"
            },
            {
              "internalType": "enum OrderRegistry.DeliveryFailureReason",
              "name": "failureReason",
              "type": "uint8"
            },
            {
              "internalType": "string",
              "name": "productCategory",
              "type": "string"
            },
            {
              "internalType": "uint8",
              "name": "deliveryAttempts",
              "type": "uint8"
            },
            {
              "internalType": "uint256",
              "name": "returnedAt",
              "type": "uint256"
            },
            {
              "internalType": "bool",
              "name": "isActive",
              "type": "bool"
            },
            {
              "internalType": "string",
              "name": "destination",
              "type": "string"
            }
          ],
          "internalType": "struct OrderRegistry.Order[]",
          "name": "",
          "type": "tuple[]"
        }
      ],
      "stateMutability": "view",
      "type": "function"
    },
    {
      "inputs": [
        {
          "internalType": "bytes32",
          "name": "role",
          "type": "bytes32"
        }
      ],
      "name": "getRoleAdmin",
      "outputs": [
        {
          "internalType": "bytes32",
          "name": "",
          "type": "bytes32"
        }
      ],
      "stateMutability": "view",
      "type": "function"
    },
    {
      "inputs": [
        {
          "internalType": "bytes32",
          "name": "userId",
          "type": "bytes32"
        }
      ],
      "name": "getUserBehaviorStats",
      "outputs": [
        {
          "internalType": "uint256",
          "name": "totalOrders",
          "type": "uint256"
        },
        {
          "internalType": "uint256",
          "name": "completedOrders",
          "type": "uint256"
        },
        {
          "internalType": "uint256",
          "name": "returnedOrders",
          "type": "uint256"
        },
        {
          "internalType": "uint256",
          "name": "deliveryFailures",
          "type": "uint256"
        },
        {
          "internalType": "uint256",
          "name": "totalOrderValue",
          "type": "uint256"
        },
        {
          "internalType": "uint256",
          "name": "avgOrderValue",
          "type": "uint256"
        }
      ],
      "stateMutability": "view",
      "type": "function"
    },
    {
      "inputs": [
        {
          "internalType": "bytes32",
          "name": "userId",
          "type": "bytes32"
        }
      ],
      "name": "getUserOrderHistory",
      "outputs": [
        {
          "components": [
            {
              "internalType": "bytes32",
              "name": "orderId",
              "type": "bytes32"
            },
            {
              "internalType": "bytes32",
              "name": "userId",
              "type": "bytes32"
            },
            {
              "internalType": "uint256",
              "name": "orderValue",
              "type": "uint256"
            },
            {
              "internalType": "uint256",
              "name": "createdAt",
              "type": "uint256"
            },
            {
              "internalType": "uint256",
              "name": "updatedAt",
              "type": "uint256"
            },
            {
              "internalType": "enum OrderRegistry.OrderStatus",
              "name": "status",
              "type": "uint8"
            },
            {
              "internalType": "enum OrderRegistry.DeliveryFailureReason",
              "name": "failureReason",
              "type": "uint8"
            },
            {
              "internalType": "string",
              "name": "productCategory",
              "type": "string"
            },
            {
              "internalType": "uint8",
              "name": "deliveryAttempts",
              "type": "uint8"
            },
            {
              "internalType": "uint256",
              "name": "returnedAt",
              "type": "uint256"
            },
            {
              "internalType": "bool",
              "name": "isActive",
              "type": "bool"
            },
            {
              "internalType": "string",
              "name": "destination",
              "type": "string"
            }
          ],
          "internalType": "struct OrderRegistry.Order[]",
          "name": "",
          "type": "tuple[]"
        }
      ],
      "stateMutability": "view",
      "type": "function"
    },
    {
      "inputs": [
        {
          "internalType": "bytes32",
          "name": "userId",
          "type": "bytes32"
        },
        {
          "internalType": "uint256",
          "name": "offset",
          "type": "uint256"
        },
        {
          "internalType": "uint256",
          "name": "limit",
          "type": "uint256"
        }
      ],
      "name": "getUserOrdersPaginated",
      "outputs": [
        {
          "components": [
            {
              "internalType": "bytes32",
              "name": "orderId",
              "type": "bytes32"
            },
            {
              "internalType": "bytes32",
              "name": "userId",
              "type": "bytes32"
            },
            {
              "internalType": "uint256",
              "name": "orderValue",
              "type": "uint256"
            },
            {
              "internalType": "uint256",
              "name": "createdAt",
              "type": "uint256"
            },
            {
              "internalType": "uint256",
              "name": "updatedAt",
              "type": "uint256"
            },
            {
              "internalType": "enum OrderRegistry.OrderStatus",
              "name": "status",
              "type": "uint8"
            },
            {
              "internalType": "enum OrderRegistry.DeliveryFailureReason",
              "name": "failureReason",
              "type": "uint8"
            },
            {
              "internalType": "string",
              "name": "productCategory",
              "type": "string"
            },
            {
              "internalType": "uint8",
              "name": "deliveryAttempts",
              "type": "uint8"
            },
            {
              "internalType": "uint256",
              "name": "returnedAt",
              "type": "uint256"
            },
            {
              "internalType": "bool",
              "name": "isActive",
              "type": "bool"
            },
            {
              "internalType": "string",
              "name": "destination",
              "type": "string"
            }
          ],
          "internalType": "struct OrderRegistry.Order[]",
          "name": "",
          "type": "tuple[]"
        },
        {
          "internalType": "uint256",
          "name": "total",
          "type": "uint256"
        }
      ],
      "stateMutability": "view",
      "type": "function"
    },
    {
      "inputs": [
        {
          "internalType": "address",
          "name": "recorder",
          "type": "address"
        }
      ],
      "name": "grantRecorderRole",
      "outputs": [],
      "stateMutability": "nonpayable",
      "type": "function"
    },
    {
      "inputs": [
        {
          "internalType": "bytes32",
          "name": "role",
          "type": "bytes32"
        },
        {
          "internalType": "address",
          "name": "account",
          "type": "address"
        }
      ],
      "name": "grantRole",
      "outputs": [],
      "stateMutability": "nonpayable",
      "type": "function"
    },
    {
      "inputs": [
        {
          "internalType": "bytes32",
          "name": "role",
          "type": "bytes32"
        },
        {
          "internalType": "address",
          "name": "account",
          "type": "address"
        }
      ],
      "name": "hasRole",
      "outputs": [
        {
          "internalType": "bool",
          "name": "",
          "type": "bool"
        }
      ],
      "stateMutability": "view",
      "type": "function"
    },
    {
      "inputs": [
        {
          "internalType": "bytes32",
          "name": "orderId",
          "type": "bytes32"
        }
      ],
      "name": "markOrderCompleted",
      "outputs": [],
      "stateMutability": "nonpayable",
      "type": "function"
    },
    {
      "inputs": [
        {
          "internalType": "bytes32",
          "name": "",
          "type": "bytes32"
        }
      ],
      "name": "orders",
      "outputs": [
        {
          "internalType": "bytes32",
          "name": "orderId",
          "type": "bytes32"
        },
        {
          "internalType": "bytes32",
          "name": "userId",
          "type": "bytes32"
        },
        {
          "internalType": "uint256",
          "name": "orderValue",
          "type": "uint256"
        },
        {
          "internalType": "uint256",
          "name": "createdAt",
          "type": "uint256"
        },
        {
          "internalType": "uint256",
          "name": "updatedAt",
          "type": "uint256"
        },
        {
          "internalType": "enum OrderRegistry.OrderStatus",
          "name": "status",
          "type": "uint8"
        },
        {
          "internalType": "enum OrderRegistry.DeliveryFailureReason",
          "name": "failureReason",
          "type": "uint8"
        },
        {
          "internalType": "string",
          "name": "productCategory",
          "type": "string"
        },
        {
          "internalType": "uint8",
          "name": "deliveryAttempts",
          "type": "uint8"
        },
        {
          "internalType": "uint256",
          "name": "returnedAt",
          "type": "uint256"
        },
        {
          "internalType": "bool",
          "name": "isActive",
          "type": "bool"
        },
        {
          "internalType": "string",
          "name": "destination",
          "type": "string"
        }
      ],
      "stateMutability": "view",
      "type": "function"
    },
    {
      "inputs": [
        {
          "internalType": "bytes32",
          "name": "orderId",
          "type": "bytes32"
        },
        {
          "internalType": "enum OrderRegistry.DeliveryFailureReason",
          "name": "reason",
          "type": "uint8"
        }
      ],
      "name": "recordDeliveryFailure",
      "outputs": [],
      "stateMutability": "nonpayable",
      "type": "function"
    },
    {
      "inputs": [
        {
          "internalType": "bytes32",
          "name": "orderId",
          "type": "bytes32"
        }
      ],
      "name": "recordProductReturn",
      "outputs": [],
      "stateMutability": "nonpayable",
      "type": "function"
    },
    {
      "inputs": [
        {
          "internalType": "bytes32",
          "name": "role",
          "type": "bytes32"
        },
        {
          "internalType": "address",
          "name": "callerConfirmation",
          "type": "address"
        }
      ],
      "name": "renounceRole",
      "outputs": [],
      "stateMutability": "nonpayable",
      "type": "function"
    },
    {
      "inputs": [
        {
          "internalType": "address",
          "name": "recorder",
          "type": "address"
        }
      ],
      "name": "revokeRecorderRole",
      "outputs": [],
      "stateMutability": "nonpayable",
      "type": "function"
    },
    {
      "inputs": [
        {
          "internalType": "bytes32",
          "name": "role",
          "type": "bytes32"
        },
        {
          "internalType": "address",
          "name": "account",
          "type": "address"
        }
      ],
      "name": "revokeRole",
      "outputs": [],
      "stateMutability": "nonpayable",
      "type": "function"
    },
    {
      "inputs": [
        {
          "internalType": "bytes4",
          "name": "interfaceId",
          "type": "bytes4"
        }
      ],
      "name": "supportsInterface",
      "outputs": [
        {
          "internalType": "bool",
          "name": "",
          "type": "bool"
        }
      ],
      "stateMutability": "view",
      "type": "function"
    },
    {
      "inputs": [
        {
          "internalType": "bytes32",
          "name": "orderId",
          "type": "bytes32"
        },
        {
          "internalType": "enum OrderRegistry.OrderStatus",
          "name": "newStatus",
          "type": "uint8"
        }
      ],
      "name": "updateOrderStatus",
      "outputs": [],
      "stateMutability": "nonpayable",
      "type": "function"
    },
    {
      "inputs": [
        {
          "internalType": "bytes32",
          "name": "",
          "type": "bytes32"
        }
      ],
      "name": "userOrderCount",
      "outputs": [
        {
          "internalType": "uint256",
          "name": "",
          "type": "uint256"
        }
      ],
      "stateMutability": "view",
      "type": "function"
    },
    {
      "inputs": [
        {
          "internalType": "bytes32",
          "name": "",
          "type": "bytes32"
        },
        {
          "internalType": "uint256",
          "name": "",
          "type": "uint256"
        }
      ],
      "name": "userOrders",
      "outputs": [
        {
          "internalType": "bytes32",
          "name": "",
          "type": "bytes32"
        }
      ],
      "stateMutability": "view",
      "type": "function"
    }
  ],
  "bytecode": "0x608060405234801561000f575f5ffd5b50604051612fee380380612fee83398101604081905261002e91610113565b6100385f3361006a565b506100637ff996da754c790e95d5c7ca3330cfcad529487fe9d1d8edb7afc65076fdf9adb48261006a565b5050610140565b5f828152602081815260408083206001600160a01b038516845290915281205460ff1661010a575f838152602081815260408083206001600160a01b03861684529091529020805460ff191660011790556100c23390565b6001600160a01b0316826001600160a01b0316847f2f8788117e7eff1d82e926ec794901d17c78024a50270940304540a733656f0d60405160405180910390a450600161010d565b505f5b92915050565b5f60208284031215610123575f5ffd5b81516001600160a01b0381168114610139575f5ffd5b9392505050565b612ea18061014d5f395ff3fe608060405234801561000f575f5ffd5b506004361061016d575f3560e01c8063689d8704116100d95780639372440a11610093578063bea865811161006e578063bea86581146103a1578063c33a1380146103b5578063d547741f146103c8578063d60dfe9a146103db575f5ffd5b80639372440a1461035c5780639c3f1e901461036f578063a217fddf1461039a575f5ffd5b8063689d8704146102c357806382d924bd146102d657806387f73a0f146102f65780638c934622146103175780638d2f854b1461033657806391d1485414610349575f5ffd5b806336568abe1161012a57806336568abe1461024457806339009cbd14610257578063504a33441461026a578063549eded01461027d5780635778472a146102905780635fad6167146102b0575f5ffd5b80630199edee1461017157806301ffc9a7146101b657806312d35eed146101d95780631db8853b146101ee578063248a9ca31461020f5780632f2ff15d14610231575b5f5ffd5b61018461017f3660046126c7565b6103ee565b604080519687526020870195909552938501929092526060840152608083015260a082015260c0015b60405180910390f35b6101c96101c43660046126de565b61077c565b60405190151581526020016101ad565b6101ec6101e736600461270c565b6107b2565b005b6102016101fc36600461273d565b61096b565b6040519081526020016101ad565b61020161021d3660046126c7565b5f9081526020819052604090206001015490565b6101ec61023f366004612778565b610996565b6101ec610252366004612778565b6109c0565b6101ec6102653660046127a2565b6109f8565b6101ec6102783660046127a2565b610a1d565b6101ec61028b3660046126c7565b610a3e565b6102a361029e3660046126c7565b610a93565b6040516101ad91906128ec565b6101ec6102be36600461299d565b610cdb565b6101ec6102d1366004612a1d565b610fa2565b6102e96102e436600461270c565b611132565b6040516101ad9190612a91565b610309610304366004612aa3565b61152f565b6040516101ad929190612acc565b6102016103253660046126c7565b60036020525f908152604090205481565b6101ec6103443660046126c7565b6118bb565b6101c9610357366004612778565b611a2f565b6102e961036a3660046126c7565b611a57565b61038261037d3660046126c7565b611d61565b6040516101ad9c9b9a99989796959493929190612aed565b6102015f81565b6102015f516020612e4c5f395f51905f5281565b6102e96103c336600461273d565b611edd565b6101ec6103d6366004612778565b6122a2565b6101ec6103e93660046126c7565b6122c6565b5f5f5f5f5f5f5f60025f8981526020019081526020015f2080548060200260200160405190810160405280929190818152602001828054801561044e57602002820191905f5260205f20905b81548152602001906001019080831161043a575b5050505050905080519650865f03610478575f5f5f5f5f5f96509650965096509650965050610773565b5f5b87811015610764575f60015f84848151811061049857610498612b79565b602002602001015181526020019081526020015f20604051806101800160405290815f820154815260200160018201548152602001600282015481526020016003820154815260200160048201548152602001600582015f9054906101000a900460ff16600781111561050d5761050d6127bb565b600781111561051e5761051e6127bb565b81526020016005820160019054906101000a900460ff166004811115610546576105466127bb565b6004811115610557576105576127bb565b815260200160068201805461056b90612b8d565b80601f016020809104026020016040519081016040528092919081815260200182805461059790612b8d565b80156105e25780601f106105b9576101008083540402835291602001916105e2565b820191905f5260205f20905b8154815290600101906020018083116105c557829003601f168201915b5050509183525050600782015460ff90811660208301526008830154604083015260098301541615156060820152600a8201805460809092019161062590612b8d565b80601f016020809104026020016040519081016040528092919081815260200182805461065190612b8d565b801561069c5780601f106106735761010080835404028352916020019161069c565b820191905f5260205f20905b81548152906001019060200180831161067f57829003601f168201915b50505050508152505090508060400151856106b79190612bd9565b945060068160a0015160078111156106d1576106d16127bb565b14806106f2575060038160a0015160078111156106f0576106f06127bb565b145b15610705578761070181612bec565b9850505b60048160a00151600781111561071d5761071d6127bb565b03610730578661072c81612bec565b9750505b60058160a001516007811115610748576107486127bb565b0361075b578561075781612bec565b9650505b5060010161047a565b5061076f8784612c04565b9150505b91939550919395565b5f6001600160e01b03198216637965db0b60e01b14806107ac57506301ffc9a760e01b6001600160e01b03198316145b92915050565b6107c95f516020612e4c5f395f51905f5233611a2f565b6107ee5760405162461bcd60e51b81526004016107e590612c23565b60405180910390fd5b5f82815260016020526040902060090154829060ff166108205760405162461bcd60e51b81526004016107e590612c68565b5f838152600160205260409020600581015460ff16836007811115610847576108476127bb565b816007811115610859576108596127bb565b0361089e5760405162461bcd60e51b815260206004820152601560248201527414dd185d1d5cc81a5cc8185b1c9958591e481cd95d605a1b60448201526064016107e5565b6108a88185612402565b6108f45760405162461bcd60e51b815260206004820152601960248201527f496e76616c696420737461747573207472616e736974696f6e0000000000000060448201526064016107e5565b60058201805485919060ff19166001836007811115610915576109156127bb565b02179055504282600401819055508160010154857ffc4f4d5f99de543c95d5bf1b213c4524806e39f0f0d6c4fef0165cf0b20eab4083874260405161095c93929190612c96565b60405180910390a35050505050565b6002602052815f5260405f208181548110610984575f80fd5b905f5260205f20015f91509150505481565b5f828152602081905260409020600101546109b081612520565b6109ba838361252d565b50505050565b6001600160a01b03811633146109e95760405163334bd91960e11b815260040160405180910390fd5b6109f382826125bc565b505050565b5f610a0281612520565b610a195f516020612e4c5f395f51905f52836122a2565b5050565b5f610a2781612520565b610a195f516020612e4c5f395f51905f5283610996565b5f610a4881612520565b5f8281526001602052604090206009015460ff16610a785760405162461bcd60e51b81526004016107e590612c68565b505f908152600160205260409020600901805460ff19169055565b610a9b61265e565b5f8281526001602052604090206009015460ff16610acb5760405162461bcd60e51b81526004016107e590612c68565b60015f8381526020019081526020015f20604051806101800160405290815f820154815260200160018201548152602001600282015481526020016003820154815260200160048201548152602001600582015f9054906101000a900460ff166007811115610b3c57610b3c6127bb565b6007811115610b4d57610b4d6127bb565b81526020016005820160019054906101000a900460ff166004811115610b7557610b756127bb565b6004811115610b8657610b866127bb565b8152602001600682018054610b9a90612b8d565b80601f0160208091040260200160405190810160405280929190818152602001828054610bc690612b8d565b8015610c115780601f10610be857610100808354040283529160200191610c11565b820191905f5260205f20905b815481529060010190602001808311610bf457829003601f168201915b5050509183525050600782015460ff90811660208301526008830154604083015260098301541615156060820152600a82018054608090920191610c5490612b8d565b80601f0160208091040260200160405190810160405280929190818152602001828054610c8090612b8d565b8015610ccb5780601f10610ca257610100808354040283529160200191610ccb565b820191905f5260205f20905b815481529060010190602001808311610cae57829003601f168201915b5050505050815250509050919050565b610cf25f516020612e4c5f395f51905f5233611a2f565b610d0e5760405162461bcd60e51b81526004016107e590612c23565b5f8581526001602052604090206009015460ff1615610d665760405162461bcd60e51b81526020600482015260146024820152734f7264657220616c72656164792065786973747360601b60448201526064016107e5565b5f8311610dc05760405162461bcd60e51b815260206004820152602260248201527f4f726465722076616c7565206d7573742062652067726561746572207468616e604482015261020360f41b60648201526084016107e5565b5f6040518061018001604052808781526020018681526020018581526020014281526020014281526020015f6007811115610dfd57610dfd6127bb565b81525f6020808301829052604080840188905260608085018490526080808601859052600160a080880182905260c09097018a90528d865280855294839020875181559387015184860155918601516002840155850151600383015584015160048201559183015160058301805494955085949192909160ff191690836007811115610e8b57610e8b6127bb565b021790555060c082015160058201805461ff001916610100836004811115610eb557610eb56127bb565b021790555060e08201516006820190610ece9082612d0a565b5061010082015160078201805460ff90921660ff19928316179055610120830151600883015561014083015160098301805491151591909216179055610160820151600a820190610f1f9082612d0a565b5050505f85815260026020908152604080832080546001810182559084528284200189905587835260039091528120805491610f5a83612bec565b919050555084867ff54592e510e92b6d175aa7eecc3786256a2ba35614eeb4061f2ddd0005f91a078686604051610f92929190612dc5565b60405180910390a3505050505050565b610fb95f516020612e4c5f395f51905f5233611a2f565b610fd55760405162461bcd60e51b81526004016107e590612c23565b5f82815260016020526040902060090154829060ff166110075760405162461bcd60e51b81526004016107e590612c68565b5f8381526001602052604090206002600582015460ff16600781111561102f5761102f6127bb565b1461107c5760405162461bcd60e51b815260206004820152601f60248201527f4f72646572206d75737420626520696e2073686970706564207374617475730060448201526064016107e5565b6005818101805460ff19811683178255859261ffff19909116176101008360048111156110ab576110ab6127bb565b021790555060078101805460ff16905f6110c483612de5565b82546101009290920a60ff8181021990931691831602179091554260048401556001830154600784015460405191935087927e89a6f992fdc1eaa7e4ecee67b17c998852da76246e164566c5664d68b04f7d926111249289921690612e03565b60405180910390a350505050565b5f82815260026020908152604080832080548251818502810185019093528083526060949383018282801561118457602002820191905f5260205f20905b815481526020019060010190808311611170575b509394505f935083925050505b825181101561120d578460078111156111ac576111ac6127bb565b60015f8584815181106111c1576111c1612b79565b60209081029190910181015182528101919091526040015f206005015460ff1660078111156111f2576111f26127bb565b03611205578161120181612bec565b9250505b600101611191565b505f8167ffffffffffffffff811115611228576112286128fe565b60405190808252806020026020018201604052801561126157816020015b61124e61265e565b8152602001906001900390816112465790505b5090505f805b845181101561152357866007811115611282576112826127bb565b60015f87848151811061129757611297612b79565b60209081029190910181015182528101919091526040015f206005015460ff1660078111156112c8576112c86127bb565b0361151b5760015f8683815181106112e2576112e2612b79565b602002602001015181526020019081526020015f20604051806101800160405290815f820154815260200160018201548152602001600282015481526020016003820154815260200160048201548152602001600582015f9054906101000a900460ff166007811115611357576113576127bb565b6007811115611368576113686127bb565b81526020016005820160019054906101000a900460ff166004811115611390576113906127bb565b60048111156113a1576113a16127bb565b81526020016006820180546113b590612b8d565b80601f01602080910402602001604051908101604052809291908181526020018280546113e190612b8d565b801561142c5780601f106114035761010080835404028352916020019161142c565b820191905f5260205f20905b81548152906001019060200180831161140f57829003601f168201915b5050509183525050600782015460ff90811660208301526008830154604083015260098301541615156060820152600a8201805460809092019161146f90612b8d565b80601f016020809104026020016040519081016040528092919081815260200182805461149b90612b8d565b80156114e65780601f106114bd576101008083540402835291602001916114e6565b820191905f5260205f20905b8154815290600101906020018083116114c957829003601f168201915b50505050508152505083838151811061150157611501612b79565b6020026020010181905250818061151790612bec565b9250505b600101611267565b50909695505050505050565b5f838152600260209081526040808320805482518185028101850190935280835260609493849392919083018282801561158657602002820191905f5260205f20905b815481526020019060010190808311611572575b50508351939450505081871090506115d457604080515f80825260208201909252906115c8565b6115b561265e565b8152602001906001900390816115ad5790505b50935091506118b39050565b5f6115df8688612bd9565b9050818111156115ec5750805b5f6115f78883612e21565b90505f8167ffffffffffffffff811115611613576116136128fe565b60405190808252806020026020018201604052801561164c57816020015b61163961265e565b8152602001906001900390816116315790505b5090505f5b828110156118a95760015f87611667848e612bd9565b8151811061167757611677612b79565b602002602001015181526020019081526020015f20604051806101800160405290815f820154815260200160018201548152602001600282015481526020016003820154815260200160048201548152602001600582015f9054906101000a900460ff1660078111156116ec576116ec6127bb565b60078111156116fd576116fd6127bb565b81526020016005820160019054906101000a900460ff166004811115611725576117256127bb565b6004811115611736576117366127bb565b815260200160068201805461174a90612b8d565b80601f016020809104026020016040519081016040528092919081815260200182805461177690612b8d565b80156117c15780601f10611798576101008083540402835291602001916117c1565b820191905f5260205f20905b8154815290600101906020018083116117a457829003601f168201915b5050509183525050600782015460ff90811660208301526008830154604083015260098301541615156060820152600a8201805460809092019161180490612b8d565b80601f016020809104026020016040519081016040528092919081815260200182805461183090612b8d565b801561187b5780601f106118525761010080835404028352916020019161187b565b820191905f5260205f20905b81548152906001019060200180831161185e57829003601f168201915b50505050508152505082828151811061189657611896612b79565b6020908102919091010152600101611651565b5095509193505050505b935093915050565b6118d25f516020612e4c5f395f51905f5233611a2f565b6118ee5760405162461bcd60e51b81526004016107e590612c23565b5f81815260016020526040902060090154819060ff166119205760405162461bcd60e51b81526004016107e590612c68565b5f8281526001602052604090206003600582015460ff166007811115611948576119486127bb565b148061196c57506001600582015460ff16600781111561196a5761196a6127bb565b145b6119cc5760405162461bcd60e51b815260206004820152602b60248201527f4f72646572206d7573742062652064656c697665726564206f7220706169642060448201526a746f20636f6d706c65746560a81b60648201526084016107e5565b60058101805460ff1916600690811790915542600483018190556001830154604051909286927ffc4f4d5f99de543c95d5bf1b213c4524806e39f0f0d6c4fef0165cf0b20eab4092611a22926003929091612c96565b60405180910390a3505050565b5f918252602082815260408084206001600160a01b0393909316845291905290205460ff1690565b5f818152600260209081526040808320805482518185028101850190935280835260609493830182828015611aa957602002820191905f5260205f20905b815481526020019060010190808311611a95575b505050505090505f815167ffffffffffffffff811115611acb57611acb6128fe565b604051908082528060200260200182016040528015611b0457816020015b611af161265e565b815260200190600190039081611ae95790505b5090505f5b8251811015611d595760015f848381518110611b2757611b27612b79565b602002602001015181526020019081526020015f20604051806101800160405290815f820154815260200160018201548152602001600282015481526020016003820154815260200160048201548152602001600582015f9054906101000a900460ff166007811115611b9c57611b9c6127bb565b6007811115611bad57611bad6127bb565b81526020016005820160019054906101000a900460ff166004811115611bd557611bd56127bb565b6004811115611be657611be66127bb565b8152602001600682018054611bfa90612b8d565b80601f0160208091040260200160405190810160405280929190818152602001828054611c2690612b8d565b8015611c715780601f10611c4857610100808354040283529160200191611c71565b820191905f5260205f20905b815481529060010190602001808311611c5457829003601f168201915b5050509183525050600782015460ff90811660208301526008830154604083015260098301541615156060820152600a82018054608090920191611cb490612b8d565b80601f0160208091040260200160405190810160405280929190818152602001828054611ce090612b8d565b8015611d2b5780601f10611d0257610100808354040283529160200191611d2b565b820191905f5260205f20905b815481529060010190602001808311611d0e57829003601f168201915b505050505081525050828281518110611d4657611d46612b79565b6020908102919091010152600101611b09565b509392505050565b600160208190525f91825260409091208054918101546002820154600383015460048401546005850154600686018054959694959394929360ff8084169461010090940416929190611db290612b8d565b80601f0160208091040260200160405190810160405280929190818152602001828054611dde90612b8d565b8015611e295780601f10611e0057610100808354040283529160200191611e29565b820191905f5260205f20905b815481529060010190602001808311611e0c57829003601f168201915b50505050600783015460088401546009850154600a86018054959660ff94851696939550939091169291611e5c90612b8d565b80601f0160208091040260200160405190810160405280929190818152602001828054611e8890612b8d565b8015611ed35780601f10611eaa57610100808354040283529160200191611ed3565b820191905f5260205f20905b815481529060010190602001808311611eb657829003601f168201915b505050505090508c565b5f828152600260209081526040808320805482518185028101850190935280835260609493830182828015611f2f57602002820191905f5260205f20905b815481526020019060010190808311611f1b575b505050505090505f8362015180611f469190612e34565b611f509042612e21565b90505f805b8351811015611fa8578260015f868481518110611f7457611f74612b79565b602002602001015181526020019081526020015f206003015410611fa05781611f9c81612bec565b9250505b600101611f55565b505f8167ffffffffffffffff811115611fc357611fc36128fe565b604051908082528060200260200182016040528015611ffc57816020015b611fe961265e565b815260200190600190039081611fe15790505b5090505f805b8551811015612295578460015f88848151811061202157612021612b79565b602002602001015181526020019081526020015f20600301541061228d5760015f87838151811061205457612054612b79565b602002602001015181526020019081526020015f20604051806101800160405290815f820154815260200160018201548152602001600282015481526020016003820154815260200160048201548152602001600582015f9054906101000a900460ff1660078111156120c9576120c96127bb565b60078111156120da576120da6127bb565b81526020016005820160019054906101000a900460ff166004811115612102576121026127bb565b6004811115612113576121136127bb565b815260200160068201805461212790612b8d565b80601f016020809104026020016040519081016040528092919081815260200182805461215390612b8d565b801561219e5780601f106121755761010080835404028352916020019161219e565b820191905f5260205f20905b81548152906001019060200180831161218157829003601f168201915b5050509183525050600782015460ff90811660208301526008830154604083015260098301541615156060820152600a820180546080909201916121e190612b8d565b80601f016020809104026020016040519081016040528092919081815260200182805461220d90612b8d565b80156122585780601f1061222f57610100808354040283529160200191612258565b820191905f5260205f20905b81548152906001019060200180831161223b57829003601f168201915b50505050508152505083838151811061227357612273612b79565b6020026020010181905250818061228990612bec565b9250505b600101612002565b5090979650505050505050565b5f828152602081905260409020600101546122bc81612520565b6109ba83836125bc565b6122dd5f516020612e4c5f395f51905f5233611a2f565b6122f95760405162461bcd60e51b81526004016107e590612c23565b5f81815260016020526040902060090154819060ff1661232b5760405162461bcd60e51b81526004016107e590612c68565b5f8281526001602052604090206003600582015460ff166007811115612353576123536127bb565b146123aa5760405162461bcd60e51b815260206004820152602160248201527f4f72646572206d7573742062652064656c69766572656420746f2072657475726044820152603760f91b60648201526084016107e5565b60058101805460ff19166004908117909155426008830181905590820181905560018201546040519182529084907f8385df198dd80dfe383b5f2a45688968b41380bf9ef5ee661c16dba4f57e1cab90602001611a22565b5f80836007811115612416576124166127bb565b036124555760015b826007811115612430576124306127bb565b148061244e575060075b82600781111561244c5761244c6127bb565b145b90506107ac565b6001836007811115612469576124696127bb565b0361247557600261241e565b6002836007811115612489576124896127bb565b036124bd5760038260078111156124a2576124a26127bb565b14806124b05750600561241e565b8061244e5750600761243a565b60038360078111156124d1576124d16127bb565b036124f85760048260078111156124ea576124ea6127bb565b148061244e5750600661243a565b600583600781111561250c5761250c6127bb565b0361251857600261241e565b505f92915050565b61252a8133612625565b50565b5f6125388383611a2f565b6125b5575f838152602081815260408083206001600160a01b03861684529091529020805460ff1916600117905561256d3390565b6001600160a01b0316826001600160a01b0316847f2f8788117e7eff1d82e926ec794901d17c78024a50270940304540a733656f0d60405160405180910390a45060016107ac565b505f6107ac565b5f6125c78383611a2f565b156125b5575f838152602081815260408083206001600160a01b0386168085529252808320805460ff1916905551339286917ff6391f5c32d9c69d2a47ea670b442974b53935d1edc7fd64eb21e047a839171b9190a45060016107ac565b61262f8282611a2f565b610a195760405163e2517d3f60e01b81526001600160a01b0382166004820152602481018390526044016107e5565b6040518061018001604052805f81526020015f81526020015f81526020015f81526020015f81526020015f600781111561269a5761269a6127bb565b81526020015f81526060602082018190525f60408301819052818301819052608083015260a09091015290565b5f602082840312156126d7575f5ffd5b5035919050565b5f602082840312156126ee575f5ffd5b81356001600160e01b031981168114612705575f5ffd5b9392505050565b5f5f6040838503121561271d575f5ffd5b82359150602083013560088110612732575f5ffd5b809150509250929050565b5f5f6040838503121561274e575f5ffd5b50508035926020909101359150565b80356001600160a01b0381168114612773575f5ffd5b919050565b5f5f60408385031215612789575f5ffd5b823591506127996020840161275d565b90509250929050565b5f602082840312156127b2575f5ffd5b6127058261275d565b634e487b7160e01b5f52602160045260245ffd5b600881106127df576127df6127bb565b9052565b600581106127df576127df6127bb565b5f81518084528060208401602086015e5f602082860101526020601f19601f83011685010191505092915050565b80518252602081015160208301526040810151604083015260608101516060830152608081015160808301525f60a082015161286060a08501826127cf565b5060c082015161287360c08501826127e3565b5060e082015161018060e085015261288f6101808501826127f3565b90506101008301516128a761010086018260ff169052565b506101208301516101208501526101408301516128c961014086018215159052565b506101608301518482036101608601526128e382826127f3565b95945050505050565b602081525f6127056020830184612821565b634e487b7160e01b5f52604160045260245ffd5b5f82601f830112612921575f5ffd5b813567ffffffffffffffff81111561293b5761293b6128fe565b604051601f8201601f19908116603f0116810167ffffffffffffffff8111828210171561296a5761296a6128fe565b604052818152838201602001851015612981575f5ffd5b816020850160208301375f918101602001919091529392505050565b5f5f5f5f5f60a086880312156129b1575f5ffd5b853594506020860135935060408601359250606086013567ffffffffffffffff8111156129dc575f5ffd5b6129e888828901612912565b925050608086013567ffffffffffffffff811115612a04575f5ffd5b612a1088828901612912565b9150509295509295909350565b5f5f60408385031215612a2e575f5ffd5b82359150602083013560058110612732575f5ffd5b5f82825180855260208501945060208160051b830101602085015f5b8381101561152357601f19858403018852612a7b838351612821565b6020988901989093509190910190600101612a5f565b602081525f6127056020830184612a43565b5f5f5f60608486031215612ab5575f5ffd5b505081359360208301359350604090920135919050565b604081525f612ade6040830185612a43565b90508260208301529392505050565b8c81528b60208201528a6040820152896060820152886080820152612b1560a08201896127cf565b612b2260c08201886127e3565b61018060e08201525f612b396101808301886127f3565b60ff871661010084015285610120840152841515610140840152828103610160840152612b6681856127f3565b9f9e505050505050505050505050505050565b634e487b7160e01b5f52603260045260245ffd5b600181811c90821680612ba157607f821691505b602082108103612bbf57634e487b7160e01b5f52602260045260245ffd5b50919050565b634e487b7160e01b5f52601160045260245ffd5b808201808211156107ac576107ac612bc5565b5f60018201612bfd57612bfd612bc5565b5060010190565b5f82612c1e57634e487b7160e01b5f52601260045260245ffd5b500490565b60208082526025908201527f4f6e6c79207265636f726465722063616e20706572666f726d2074686973206160408201526431ba34b7b760d91b606082015260800190565b60208082526014908201527313dc99195c88191bd95cc81b9bdd08195e1a5cdd60621b604082015260600190565b60608101612ca482866127cf565b612cb160208301856127cf565b826040830152949350505050565b601f8211156109f357805f5260205f20601f840160051c81016020851015612ce45750805b601f840160051c820191505b81811015612d03575f8155600101612cf0565b5050505050565b815167ffffffffffffffff811115612d2457612d246128fe565b612d3881612d328454612b8d565b84612cbf565b6020601f821160018114612d6a575f8315612d535750848201515b5f19600385901b1c1916600184901b178455612d03565b5f84815260208120601f198516915b82811015612d995787850151825560209485019460019092019101612d79565b5084821015612db657868401515f19600387901b60f8161c191681555b50505050600190811b01905550565b828152604060208201525f612ddd60408301846127f3565b949350505050565b5f60ff821660ff8103612dfa57612dfa612bc5565b60010192915050565b60408101612e1182856127e3565b60ff831660208301529392505050565b818103818111156107ac576107ac612bc5565b80820281158282048414176107ac576107ac612bc556fef996da754c790e95d5c7ca3330cfcad529487fe9d1d8edb7afc65076fdf9adb4a264697066735822122045a672f255009915a6d6d58b9f3487cefa72322c4c185bb1e2346059deedea5064736f6c634300081c0033",
  "linkReferences": {},
  "deployedLinkReferences": {},
  "immutableReferences": {},
  "inputSourceName": "project/contracts/OrderRegistry.sol",
  "buildInfoId": "solc-0_8_28-98678c847189e6f6aec2f91b8143892d90b7db1e"
}